{
	"Voter.sol": {
		"Voter": {
			"abi": [
				{
					"inputs": [
						{
							"internalType": "string[]",
							"name": "_options",
							"type": "string[]"
						}
					],
					"stateMutability": "nonpayable",
					"type": "constructor"
				},
				{
					"inputs": [],
					"name": "getOptions",
					"outputs": [
						{
							"internalType": "string[]",
							"name": "",
							"type": "string[]"
						}
					],
					"stateMutability": "view",
					"type": "function"
				},
				{
					"inputs": [],
					"name": "getVotes",
					"outputs": [
						{
							"internalType": "uint256[]",
							"name": "",
							"type": "uint256[]"
						}
					],
					"stateMutability": "view",
					"type": "function"
				},
				{
					"inputs": [
						{
							"internalType": "uint256",
							"name": "",
							"type": "uint256"
						}
					],
					"name": "options",
					"outputs": [
						{
							"internalType": "string",
							"name": "",
							"type": "string"
						}
					],
					"stateMutability": "view",
					"type": "function"
				},
				{
					"inputs": [
						{
							"internalType": "uint256",
							"name": "option",
							"type": "uint256"
						}
					],
					"name": "vote",
					"outputs": [],
					"stateMutability": "nonpayable",
					"type": "function"
				},
				{
					"inputs": [
						{
							"internalType": "uint256",
							"name": "",
							"type": "uint256"
						}
					],
					"name": "votes",
					"outputs": [
						{
							"internalType": "uint256",
							"name": "",
							"type": "uint256"
						}
					],
					"stateMutability": "view",
					"type": "function"
				}
			],
			"devdoc": {
				"kind": "dev",
				"methods": {},
				"version": 1
			},
			"evm": {
				"assembly": "    /* \"Voter.sol\":27:581  contract Voter{... */\n  mstore(0x40, 0x80)\n    /* \"Voter.sol\":112:231  constructor (string[] memory _options){... */\n  callvalue\n  dup1\n  iszero\n  tag_1\n  jumpi\n  0x00\n  dup1\n  revert\ntag_1:\n  pop\n  mload(0x40)\n  sub(codesize, bytecodeSize)\n  dup1\n  bytecodeSize\n  dup4\n  codecopy\n  dup2\n  dup2\n  add\n  0x40\n  mstore\n  dup2\n  add\n  swap1\n  tag_2\n  swap2\n  swap1\n  tag_3\n  jump\t// in\ntag_2:\n    /* \"Voter.sol\":169:177  _options */\n  dup1\n    /* \"Voter.sol\":161:168  options */\n  0x01\n    /* \"Voter.sol\":161:177  options=_options */\n  swap1\n  dup1\n  mload\n  swap1\n  0x20\n  add\n  swap1\n  tag_6\n  swap3\n  swap2\n  swap1\n  tag_7\n  jump\t// in\ntag_6:\n  pop\n    /* \"Voter.sol\":207:215  _options */\n  dup1\n    /* \"Voter.sol\":207:222  _options.length */\n  mload\n    /* \"Voter.sol\":196:223  new uint[](_options.length) */\n  0xffffffffffffffff\n  dup2\n  gt\n  iszero\n  tag_8\n  jumpi\n  tag_9\n  tag_10\n  jump\t// in\ntag_9:\ntag_8:\n  mload(0x40)\n  swap1\n  dup1\n  dup3\n  mstore\n  dup1\n  0x20\n  mul\n  0x20\n  add\n  dup3\n  add\n  0x40\n  mstore\n  dup1\n  iszero\n  tag_11\n  jumpi\n  dup2\n  0x20\n  add\n  0x20\n  dup3\n  mul\n  dup1\n  calldatasize\n  dup4\n  calldatacopy\n  dup1\n  dup3\n  add\n  swap2\n  pop\n  pop\n  swap1\n  pop\ntag_11:\n  pop\n    /* \"Voter.sol\":188:193  votes */\n  0x00\n    /* \"Voter.sol\":188:223  votes = new uint[](_options.length) */\n  swap1\n  dup1\n  mload\n  swap1\n  0x20\n  add\n  swap1\n  tag_12\n  swap3\n  swap2\n  swap1\n  tag_13\n  jump\t// in\ntag_12:\n  pop\n    /* \"Voter.sol\":112:231  constructor (string[] memory _options){... */\n  pop\n    /* \"Voter.sol\":27:581  contract Voter{... */\n  jump(tag_14)\ntag_7:\n  dup3\n  dup1\n  sload\n  dup3\n  dup3\n  sstore\n  swap1\n  0x00\n  mstore\n  keccak256(0x00, 0x20)\n  swap1\n  dup2\n  add\n  swap3\n  dup3\n  iszero\n  tag_15\n  jumpi\n  swap2\n  0x20\n  mul\n  dup3\n  add\ntag_16:\n  dup3\n  dup2\n  gt\n  iszero\n  tag_17\n  jumpi\n  dup3\n  mload\n  dup3\n  swap1\n  dup2\n  tag_18\n  swap2\n  swap1\n  tag_19\n  jump\t// in\ntag_18:\n  pop\n  swap2\n  0x20\n  add\n  swap2\n  swap1\n  0x01\n  add\n  swap1\n  jump(tag_16)\ntag_17:\ntag_15:\n  pop\n  swap1\n  pop\n  tag_20\n  swap2\n  swap1\n  tag_21\n  jump\t// in\ntag_20:\n  pop\n  swap1\n  jump\t// out\ntag_13:\n  dup3\n  dup1\n  sload\n  dup3\n  dup3\n  sstore\n  swap1\n  0x00\n  mstore\n  keccak256(0x00, 0x20)\n  swap1\n  dup2\n  add\n  swap3\n  dup3\n  iszero\n  tag_22\n  jumpi\n  swap2\n  0x20\n  mul\n  dup3\n  add\ntag_23:\n  dup3\n  dup2\n  gt\n  iszero\n  tag_24\n  jumpi\n  dup3\n  mload\n  dup3\n  sstore\n  swap2\n  0x20\n  add\n  swap2\n  swap1\n  0x01\n  add\n  swap1\n  jump(tag_23)\ntag_24:\ntag_22:\n  pop\n  swap1\n  pop\n  tag_25\n  swap2\n  swap1\n  tag_26\n  jump\t// in\ntag_25:\n  pop\n  swap1\n  jump\t// out\ntag_21:\ntag_27:\n  dup1\n  dup3\n  gt\n  iszero\n  tag_28\n  jumpi\n  0x00\n  dup2\n  dup2\n  tag_29\n  swap2\n  swap1\n  tag_30\n  jump\t// in\ntag_29:\n  pop\n  0x01\n  add\n  jump(tag_27)\ntag_28:\n  pop\n  swap1\n  jump\t// out\ntag_26:\ntag_31:\n  dup1\n  dup3\n  gt\n  iszero\n  tag_32\n  jumpi\n  0x00\n  dup2\n  0x00\n  swap1\n  sstore\n  pop\n  0x01\n  add\n  jump(tag_31)\ntag_32:\n  pop\n  swap1\n  jump\t// out\ntag_30:\n  pop\n  dup1\n  sload\n  tag_33\n  swap1\n  tag_34\n  jump\t// in\ntag_33:\n  0x00\n  dup3\n  sstore\n  dup1\n  0x1f\n  lt\n  tag_36\n  jumpi\n  pop\n  jump(tag_35)\ntag_36:\n  0x1f\n  add\n  0x20\n  swap1\n  div\n  swap1\n  0x00\n  mstore\n  keccak256(0x00, 0x20)\n  swap1\n  dup2\n  add\n  swap1\n  tag_37\n  swap2\n  swap1\n  tag_26\n  jump\t// in\ntag_37:\ntag_35:\n  pop\n  jump\t// out\n    /* \"#utility.yul\":7:82   */\ntag_38:\n    /* \"#utility.yul\":40:46   */\n  0x00\n    /* \"#utility.yul\":73:75   */\n  0x40\n    /* \"#utility.yul\":67:76   */\n  mload\n    /* \"#utility.yul\":57:76   */\n  swap1\n  pop\n    /* \"#utility.yul\":7:82   */\n  swap1\n  jump\t// out\n    /* \"#utility.yul\":88:205   */\ntag_39:\n    /* \"#utility.yul\":197:198   */\n  0x00\n    /* \"#utility.yul\":194:195   */\n  dup1\n    /* \"#utility.yul\":187:199   */\n  revert\n    /* \"#utility.yul\":211:328   */\ntag_40:\n    /* \"#utility.yul\":320:321   */\n  0x00\n    /* \"#utility.yul\":317:318   */\n  dup1\n    /* \"#utility.yul\":310:322   */\n  revert\n    /* \"#utility.yul\":334:451   */\ntag_41:\n    /* \"#utility.yul\":443:444   */\n  0x00\n    /* \"#utility.yul\":440:441   */\n  dup1\n    /* \"#utility.yul\":433:445   */\n  revert\n    /* \"#utility.yul\":457:559   */\ntag_42:\n    /* \"#utility.yul\":498:504   */\n  0x00\n    /* \"#utility.yul\":549:551   */\n  0x1f\n    /* \"#utility.yul\":545:552   */\n  not\n    /* \"#utility.yul\":540:542   */\n  0x1f\n    /* \"#utility.yul\":533:538   */\n  dup4\n    /* \"#utility.yul\":529:543   */\n  add\n    /* \"#utility.yul\":525:553   */\n  and\n    /* \"#utility.yul\":515:553   */\n  swap1\n  pop\n    /* \"#utility.yul\":457:559   */\n  swap2\n  swap1\n  pop\n  jump\t// out\n    /* \"#utility.yul\":565:745   */\ntag_10:\n    /* \"#utility.yul\":613:690   */\n  0x4e487b7100000000000000000000000000000000000000000000000000000000\n    /* \"#utility.yul\":610:611   */\n  0x00\n    /* \"#utility.yul\":603:691   */\n  mstore\n    /* \"#utility.yul\":710:714   */\n  0x41\n    /* \"#utility.yul\":707:708   */\n  0x04\n    /* \"#utility.yul\":700:715   */\n  mstore\n    /* \"#utility.yul\":734:738   */\n  0x24\n    /* \"#utility.yul\":731:732   */\n  0x00\n    /* \"#utility.yul\":724:739   */\n  revert\n    /* \"#utility.yul\":751:1032   */\ntag_43:\n    /* \"#utility.yul\":834:861   */\n  tag_80\n    /* \"#utility.yul\":856:860   */\n  dup3\n    /* \"#utility.yul\":834:861   */\n  tag_42\n  jump\t// in\ntag_80:\n    /* \"#utility.yul\":826:832   */\n  dup2\n    /* \"#utility.yul\":822:862   */\n  add\n    /* \"#utility.yul\":964:970   */\n  dup2\n    /* \"#utility.yul\":952:962   */\n  dup2\n    /* \"#utility.yul\":949:971   */\n  lt\n    /* \"#utility.yul\":928:946   */\n  0xffffffffffffffff\n    /* \"#utility.yul\":916:926   */\n  dup3\n    /* \"#utility.yul\":913:947   */\n  gt\n    /* \"#utility.yul\":910:972   */\n  or\n    /* \"#utility.yul\":907:995   */\n  iszero\n  tag_81\n  jumpi\n    /* \"#utility.yul\":975:993   */\n  tag_82\n  tag_10\n  jump\t// in\ntag_82:\n    /* \"#utility.yul\":907:995   */\ntag_81:\n    /* \"#utility.yul\":1015:1025   */\n  dup1\n    /* \"#utility.yul\":1011:1013   */\n  0x40\n    /* \"#utility.yul\":1004:1026   */\n  mstore\n    /* \"#utility.yul\":794:1032   */\n  pop\n    /* \"#utility.yul\":751:1032   */\n  pop\n  pop\n  jump\t// out\n    /* \"#utility.yul\":1038:1167   */\ntag_44:\n    /* \"#utility.yul\":1072:1078   */\n  0x00\n    /* \"#utility.yul\":1099:1119   */\n  tag_84\n  tag_38\n  jump\t// in\ntag_84:\n    /* \"#utility.yul\":1089:1119   */\n  swap1\n  pop\n    /* \"#utility.yul\":1128:1161   */\n  tag_85\n    /* \"#utility.yul\":1156:1160   */\n  dup3\n    /* \"#utility.yul\":1148:1154   */\n  dup3\n    /* \"#utility.yul\":1128:1161   */\n  tag_43\n  jump\t// in\ntag_85:\n    /* \"#utility.yul\":1038:1167   */\n  swap2\n  swap1\n  pop\n  jump\t// out\n    /* \"#utility.yul\":1173:1494   */\ntag_45:\n    /* \"#utility.yul\":1260:1264   */\n  0x00\n    /* \"#utility.yul\":1350:1368   */\n  0xffffffffffffffff\n    /* \"#utility.yul\":1342:1348   */\n  dup3\n    /* \"#utility.yul\":1339:1369   */\n  gt\n    /* \"#utility.yul\":1336:1392   */\n  iszero\n  tag_87\n  jumpi\n    /* \"#utility.yul\":1372:1390   */\n  tag_88\n  tag_10\n  jump\t// in\ntag_88:\n    /* \"#utility.yul\":1336:1392   */\ntag_87:\n    /* \"#utility.yul\":1422:1426   */\n  0x20\n    /* \"#utility.yul\":1414:1420   */\n  dup3\n    /* \"#utility.yul\":1410:1427   */\n  mul\n    /* \"#utility.yul\":1402:1427   */\n  swap1\n  pop\n    /* \"#utility.yul\":1482:1486   */\n  0x20\n    /* \"#utility.yul\":1476:1480   */\n  dup2\n    /* \"#utility.yul\":1472:1487   */\n  add\n    /* \"#utility.yul\":1464:1487   */\n  swap1\n  pop\n    /* \"#utility.yul\":1173:1494   */\n  swap2\n  swap1\n  pop\n  jump\t// out\n    /* \"#utility.yul\":1500:1617   */\ntag_46:\n    /* \"#utility.yul\":1609:1610   */\n  0x00\n    /* \"#utility.yul\":1606:1607   */\n  dup1\n    /* \"#utility.yul\":1599:1611   */\n  revert\n    /* \"#utility.yul\":1623:1740   */\ntag_47:\n    /* \"#utility.yul\":1732:1733   */\n  0x00\n    /* \"#utility.yul\":1729:1730   */\n  dup1\n    /* \"#utility.yul\":1722:1734   */\n  revert\n    /* \"#utility.yul\":1746:2054   */\ntag_48:\n    /* \"#utility.yul\":1808:1812   */\n  0x00\n    /* \"#utility.yul\":1898:1916   */\n  0xffffffffffffffff\n    /* \"#utility.yul\":1890:1896   */\n  dup3\n    /* \"#utility.yul\":1887:1917   */\n  gt\n    /* \"#utility.yul\":1884:1940   */\n  iszero\n  tag_92\n  jumpi\n    /* \"#utility.yul\":1920:1938   */\n  tag_93\n  tag_10\n  jump\t// in\ntag_93:\n    /* \"#utility.yul\":1884:1940   */\ntag_92:\n    /* \"#utility.yul\":1958:1987   */\n  tag_94\n    /* \"#utility.yul\":1980:1986   */\n  dup3\n    /* \"#utility.yul\":1958:1987   */\n  tag_42\n  jump\t// in\ntag_94:\n    /* \"#utility.yul\":1950:1987   */\n  swap1\n  pop\n    /* \"#utility.yul\":2042:2046   */\n  0x20\n    /* \"#utility.yul\":2036:2040   */\n  dup2\n    /* \"#utility.yul\":2032:2047   */\n  add\n    /* \"#utility.yul\":2024:2047   */\n  swap1\n  pop\n    /* \"#utility.yul\":1746:2054   */\n  swap2\n  swap1\n  pop\n  jump\t// out\n    /* \"#utility.yul\":2060:2306   */\ntag_49:\n    /* \"#utility.yul\":2141:2142   */\n  0x00\n    /* \"#utility.yul\":2151:2264   */\ntag_96:\n    /* \"#utility.yul\":2165:2171   */\n  dup4\n    /* \"#utility.yul\":2162:2163   */\n  dup2\n    /* \"#utility.yul\":2159:2172   */\n  lt\n    /* \"#utility.yul\":2151:2264   */\n  iszero\n  tag_98\n  jumpi\n    /* \"#utility.yul\":2250:2251   */\n  dup1\n    /* \"#utility.yul\":2245:2248   */\n  dup3\n    /* \"#utility.yul\":2241:2252   */\n  add\n    /* \"#utility.yul\":2235:2253   */\n  mload\n    /* \"#utility.yul\":2231:2232   */\n  dup2\n    /* \"#utility.yul\":2226:2229   */\n  dup5\n    /* \"#utility.yul\":2222:2233   */\n  add\n    /* \"#utility.yul\":2215:2254   */\n  mstore\n    /* \"#utility.yul\":2187:2189   */\n  0x20\n    /* \"#utility.yul\":2184:2185   */\n  dup2\n    /* \"#utility.yul\":2180:2190   */\n  add\n    /* \"#utility.yul\":2175:2190   */\n  swap1\n  pop\n    /* \"#utility.yul\":2151:2264   */\n  jump(tag_96)\ntag_98:\n    /* \"#utility.yul\":2298:2299   */\n  0x00\n    /* \"#utility.yul\":2289:2295   */\n  dup5\n    /* \"#utility.yul\":2284:2287   */\n  dup5\n    /* \"#utility.yul\":2280:2296   */\n  add\n    /* \"#utility.yul\":2273:2300   */\n  mstore\n    /* \"#utility.yul\":2122:2306   */\n  pop\n    /* \"#utility.yul\":2060:2306   */\n  pop\n  pop\n  pop\n  jump\t// out\n    /* \"#utility.yul\":2312:2746   */\ntag_50:\n    /* \"#utility.yul\":2401:2406   */\n  0x00\n    /* \"#utility.yul\":2426:2492   */\n  tag_100\n    /* \"#utility.yul\":2442:2491   */\n  tag_101\n    /* \"#utility.yul\":2484:2490   */\n  dup5\n    /* \"#utility.yul\":2442:2491   */\n  tag_48\n  jump\t// in\ntag_101:\n    /* \"#utility.yul\":2426:2492   */\n  tag_44\n  jump\t// in\ntag_100:\n    /* \"#utility.yul\":2417:2492   */\n  swap1\n  pop\n    /* \"#utility.yul\":2515:2521   */\n  dup3\n    /* \"#utility.yul\":2508:2513   */\n  dup2\n    /* \"#utility.yul\":2501:2522   */\n  mstore\n    /* \"#utility.yul\":2553:2557   */\n  0x20\n    /* \"#utility.yul\":2546:2551   */\n  dup2\n    /* \"#utility.yul\":2542:2558   */\n  add\n    /* \"#utility.yul\":2591:2594   */\n  dup5\n    /* \"#utility.yul\":2582:2588   */\n  dup5\n    /* \"#utility.yul\":2577:2580   */\n  dup5\n    /* \"#utility.yul\":2573:2589   */\n  add\n    /* \"#utility.yul\":2570:2595   */\n  gt\n    /* \"#utility.yul\":2567:2679   */\n  iszero\n  tag_102\n  jumpi\n    /* \"#utility.yul\":2598:2677   */\n  tag_103\n  tag_47\n  jump\t// in\ntag_103:\n    /* \"#utility.yul\":2567:2679   */\ntag_102:\n    /* \"#utility.yul\":2688:2740   */\n  tag_104\n    /* \"#utility.yul\":2733:2739   */\n  dup5\n    /* \"#utility.yul\":2728:2731   */\n  dup3\n    /* \"#utility.yul\":2723:2726   */\n  dup6\n    /* \"#utility.yul\":2688:2740   */\n  tag_49\n  jump\t// in\ntag_104:\n    /* \"#utility.yul\":2407:2746   */\n  pop\n    /* \"#utility.yul\":2312:2746   */\n  swap4\n  swap3\n  pop\n  pop\n  pop\n  jump\t// out\n    /* \"#utility.yul\":2766:3121   */\ntag_51:\n    /* \"#utility.yul\":2833:2838   */\n  0x00\n    /* \"#utility.yul\":2882:2885   */\n  dup3\n    /* \"#utility.yul\":2875:2879   */\n  0x1f\n    /* \"#utility.yul\":2867:2873   */\n  dup4\n    /* \"#utility.yul\":2863:2880   */\n  add\n    /* \"#utility.yul\":2859:2886   */\n  slt\n    /* \"#utility.yul\":2849:2971   */\n  tag_106\n  jumpi\n    /* \"#utility.yul\":2890:2969   */\n  tag_107\n  tag_41\n  jump\t// in\ntag_107:\n    /* \"#utility.yul\":2849:2971   */\ntag_106:\n    /* \"#utility.yul\":3000:3006   */\n  dup2\n    /* \"#utility.yul\":2994:3007   */\n  mload\n    /* \"#utility.yul\":3025:3115   */\n  tag_108\n    /* \"#utility.yul\":3111:3114   */\n  dup5\n    /* \"#utility.yul\":3103:3109   */\n  dup3\n    /* \"#utility.yul\":3096:3100   */\n  0x20\n    /* \"#utility.yul\":3088:3094   */\n  dup7\n    /* \"#utility.yul\":3084:3101   */\n  add\n    /* \"#utility.yul\":3025:3115   */\n  tag_50\n  jump\t// in\ntag_108:\n    /* \"#utility.yul\":3016:3115   */\n  swap2\n  pop\n    /* \"#utility.yul\":2839:3121   */\n  pop\n    /* \"#utility.yul\":2766:3121   */\n  swap3\n  swap2\n  pop\n  pop\n  jump\t// out\n    /* \"#utility.yul\":3143:4103   */\ntag_52:\n    /* \"#utility.yul\":3260:3265   */\n  0x00\n    /* \"#utility.yul\":3285:3376   */\n  tag_110\n    /* \"#utility.yul\":3301:3375   */\n  tag_111\n    /* \"#utility.yul\":3368:3374   */\n  dup5\n    /* \"#utility.yul\":3301:3375   */\n  tag_45\n  jump\t// in\ntag_111:\n    /* \"#utility.yul\":3285:3376   */\n  tag_44\n  jump\t// in\ntag_110:\n    /* \"#utility.yul\":3276:3376   */\n  swap1\n  pop\n    /* \"#utility.yul\":3396:3401   */\n  dup1\n    /* \"#utility.yul\":3425:3431   */\n  dup4\n    /* \"#utility.yul\":3418:3423   */\n  dup3\n    /* \"#utility.yul\":3411:3432   */\n  mstore\n    /* \"#utility.yul\":3459:3463   */\n  0x20\n    /* \"#utility.yul\":3452:3457   */\n  dup3\n    /* \"#utility.yul\":3448:3464   */\n  add\n    /* \"#utility.yul\":3441:3464   */\n  swap1\n  pop\n    /* \"#utility.yul\":3512:3516   */\n  0x20\n    /* \"#utility.yul\":3504:3510   */\n  dup5\n    /* \"#utility.yul\":3500:3517   */\n  mul\n    /* \"#utility.yul\":3492:3498   */\n  dup4\n    /* \"#utility.yul\":3488:3518   */\n  add\n    /* \"#utility.yul\":3541:3544   */\n  dup6\n    /* \"#utility.yul\":3533:3539   */\n  dup2\n    /* \"#utility.yul\":3530:3545   */\n  gt\n    /* \"#utility.yul\":3527:3649   */\n  iszero\n  tag_112\n  jumpi\n    /* \"#utility.yul\":3560:3639   */\n  tag_113\n  tag_46\n  jump\t// in\ntag_113:\n    /* \"#utility.yul\":3527:3649   */\ntag_112:\n    /* \"#utility.yul\":3675:3681   */\n  dup4\n    /* \"#utility.yul\":3658:4097   */\ntag_114:\n    /* \"#utility.yul\":3692:3698   */\n  dup2\n    /* \"#utility.yul\":3687:3690   */\n  dup2\n    /* \"#utility.yul\":3684:3699   */\n  lt\n    /* \"#utility.yul\":3658:4097   */\n  iszero\n  tag_116\n  jumpi\n    /* \"#utility.yul\":3774:3777   */\n  dup1\n    /* \"#utility.yul\":3768:3778   */\n  mload\n    /* \"#utility.yul\":3810:3828   */\n  0xffffffffffffffff\n    /* \"#utility.yul\":3797:3808   */\n  dup2\n    /* \"#utility.yul\":3794:3829   */\n  gt\n    /* \"#utility.yul\":3791:3913   */\n  iszero\n  tag_117\n  jumpi\n    /* \"#utility.yul\":3832:3911   */\n  tag_118\n  tag_41\n  jump\t// in\ntag_118:\n    /* \"#utility.yul\":3791:3913   */\ntag_117:\n    /* \"#utility.yul\":3956:3967   */\n  dup1\n    /* \"#utility.yul\":3948:3954   */\n  dup7\n    /* \"#utility.yul\":3944:3968   */\n  add\n    /* \"#utility.yul\":3994:4052   */\n  tag_119\n    /* \"#utility.yul\":4048:4051   */\n  dup10\n    /* \"#utility.yul\":4036:4046   */\n  dup3\n    /* \"#utility.yul\":3994:4052   */\n  tag_51\n  jump\t// in\ntag_119:\n    /* \"#utility.yul\":3989:3992   */\n  dup6\n    /* \"#utility.yul\":3982:4053   */\n  mstore\n    /* \"#utility.yul\":4082:4086   */\n  0x20\n    /* \"#utility.yul\":4077:4080   */\n  dup6\n    /* \"#utility.yul\":4073:4087   */\n  add\n    /* \"#utility.yul\":4066:4087   */\n  swap5\n  pop\n    /* \"#utility.yul\":3734:4097   */\n  pop\n  pop\n    /* \"#utility.yul\":3718:3722   */\n  0x20\n    /* \"#utility.yul\":3713:3716   */\n  dup2\n    /* \"#utility.yul\":3709:3723   */\n  add\n    /* \"#utility.yul\":3702:3723   */\n  swap1\n  pop\n    /* \"#utility.yul\":3658:4097   */\n  jump(tag_114)\ntag_116:\n    /* \"#utility.yul\":3662:3683   */\n  pop\n    /* \"#utility.yul\":3266:4103   */\n  pop\n  pop\n    /* \"#utility.yul\":3143:4103   */\n  swap4\n  swap3\n  pop\n  pop\n  pop\n  jump\t// out\n    /* \"#utility.yul\":4125:4530   */\ntag_53:\n    /* \"#utility.yul\":4217:4222   */\n  0x00\n    /* \"#utility.yul\":4266:4269   */\n  dup3\n    /* \"#utility.yul\":4259:4263   */\n  0x1f\n    /* \"#utility.yul\":4251:4257   */\n  dup4\n    /* \"#utility.yul\":4247:4264   */\n  add\n    /* \"#utility.yul\":4243:4270   */\n  slt\n    /* \"#utility.yul\":4233:4355   */\n  tag_121\n  jumpi\n    /* \"#utility.yul\":4274:4353   */\n  tag_122\n  tag_41\n  jump\t// in\ntag_122:\n    /* \"#utility.yul\":4233:4355   */\ntag_121:\n    /* \"#utility.yul\":4384:4390   */\n  dup2\n    /* \"#utility.yul\":4378:4391   */\n  mload\n    /* \"#utility.yul\":4409:4524   */\n  tag_123\n    /* \"#utility.yul\":4520:4523   */\n  dup5\n    /* \"#utility.yul\":4512:4518   */\n  dup3\n    /* \"#utility.yul\":4505:4509   */\n  0x20\n    /* \"#utility.yul\":4497:4503   */\n  dup7\n    /* \"#utility.yul\":4493:4510   */\n  add\n    /* \"#utility.yul\":4409:4524   */\n  tag_52\n  jump\t// in\ntag_123:\n    /* \"#utility.yul\":4400:4524   */\n  swap2\n  pop\n    /* \"#utility.yul\":4223:4530   */\n  pop\n    /* \"#utility.yul\":4125:4530   */\n  swap3\n  swap2\n  pop\n  pop\n  jump\t// out\n    /* \"#utility.yul\":4536:5110   */\ntag_3:\n    /* \"#utility.yul\":4641:4647   */\n  0x00\n    /* \"#utility.yul\":4690:4692   */\n  0x20\n    /* \"#utility.yul\":4678:4687   */\n  dup3\n    /* \"#utility.yul\":4669:4676   */\n  dup5\n    /* \"#utility.yul\":4665:4688   */\n  sub\n    /* \"#utility.yul\":4661:4693   */\n  slt\n    /* \"#utility.yul\":4658:4777   */\n  iszero\n  tag_125\n  jumpi\n    /* \"#utility.yul\":4696:4775   */\n  tag_126\n  tag_39\n  jump\t// in\ntag_126:\n    /* \"#utility.yul\":4658:4777   */\ntag_125:\n    /* \"#utility.yul\":4837:4838   */\n  0x00\n    /* \"#utility.yul\":4826:4835   */\n  dup3\n    /* \"#utility.yul\":4822:4839   */\n  add\n    /* \"#utility.yul\":4816:4840   */\n  mload\n    /* \"#utility.yul\":4867:4885   */\n  0xffffffffffffffff\n    /* \"#utility.yul\":4859:4865   */\n  dup2\n    /* \"#utility.yul\":4856:4886   */\n  gt\n    /* \"#utility.yul\":4853:4970   */\n  iszero\n  tag_127\n  jumpi\n    /* \"#utility.yul\":4889:4968   */\n  tag_128\n  tag_40\n  jump\t// in\ntag_128:\n    /* \"#utility.yul\":4853:4970   */\ntag_127:\n    /* \"#utility.yul\":4994:5093   */\n  tag_129\n    /* \"#utility.yul\":5085:5092   */\n  dup5\n    /* \"#utility.yul\":5076:5082   */\n  dup3\n    /* \"#utility.yul\":5065:5074   */\n  dup6\n    /* \"#utility.yul\":5061:5083   */\n  add\n    /* \"#utility.yul\":4994:5093   */\n  tag_53\n  jump\t// in\ntag_129:\n    /* \"#utility.yul\":4984:5093   */\n  swap2\n  pop\n    /* \"#utility.yul\":4787:5103   */\n  pop\n    /* \"#utility.yul\":4536:5110   */\n  swap3\n  swap2\n  pop\n  pop\n  jump\t// out\n    /* \"#utility.yul\":5116:5215   */\ntag_54:\n    /* \"#utility.yul\":5168:5174   */\n  0x00\n    /* \"#utility.yul\":5202:5207   */\n  dup2\n    /* \"#utility.yul\":5196:5208   */\n  mload\n    /* \"#utility.yul\":5186:5208   */\n  swap1\n  pop\n    /* \"#utility.yul\":5116:5215   */\n  swap2\n  swap1\n  pop\n  jump\t// out\n    /* \"#utility.yul\":5221:5401   */\ntag_55:\n    /* \"#utility.yul\":5269:5346   */\n  0x4e487b7100000000000000000000000000000000000000000000000000000000\n    /* \"#utility.yul\":5266:5267   */\n  0x00\n    /* \"#utility.yul\":5259:5347   */\n  mstore\n    /* \"#utility.yul\":5366:5370   */\n  0x22\n    /* \"#utility.yul\":5363:5364   */\n  0x04\n    /* \"#utility.yul\":5356:5371   */\n  mstore\n    /* \"#utility.yul\":5390:5394   */\n  0x24\n    /* \"#utility.yul\":5387:5388   */\n  0x00\n    /* \"#utility.yul\":5380:5395   */\n  revert\n    /* \"#utility.yul\":5407:5727   */\ntag_34:\n    /* \"#utility.yul\":5451:5457   */\n  0x00\n    /* \"#utility.yul\":5488:5489   */\n  0x02\n    /* \"#utility.yul\":5482:5486   */\n  dup3\n    /* \"#utility.yul\":5478:5490   */\n  div\n    /* \"#utility.yul\":5468:5490   */\n  swap1\n  pop\n    /* \"#utility.yul\":5535:5536   */\n  0x01\n    /* \"#utility.yul\":5529:5533   */\n  dup3\n    /* \"#utility.yul\":5525:5537   */\n  and\n    /* \"#utility.yul\":5556:5574   */\n  dup1\n    /* \"#utility.yul\":5546:5627   */\n  tag_133\n  jumpi\n    /* \"#utility.yul\":5612:5616   */\n  0x7f\n    /* \"#utility.yul\":5604:5610   */\n  dup3\n    /* \"#utility.yul\":5600:5617   */\n  and\n    /* \"#utility.yul\":5590:5617   */\n  swap2\n  pop\n    /* \"#utility.yul\":5546:5627   */\ntag_133:\n    /* \"#utility.yul\":5674:5676   */\n  0x20\n    /* \"#utility.yul\":5666:5672   */\n  dup3\n    /* \"#utility.yul\":5663:5677   */\n  lt\n    /* \"#utility.yul\":5643:5661   */\n  dup2\n    /* \"#utility.yul\":5640:5678   */\n  sub\n    /* \"#utility.yul\":5637:5721   */\n  tag_134\n  jumpi\n    /* \"#utility.yul\":5693:5711   */\n  tag_135\n  tag_55\n  jump\t// in\ntag_135:\n    /* \"#utility.yul\":5637:5721   */\ntag_134:\n    /* \"#utility.yul\":5458:5727   */\n  pop\n    /* \"#utility.yul\":5407:5727   */\n  swap2\n  swap1\n  pop\n  jump\t// out\n    /* \"#utility.yul\":5733:5874   */\ntag_56:\n    /* \"#utility.yul\":5782:5786   */\n  0x00\n    /* \"#utility.yul\":5805:5808   */\n  dup2\n    /* \"#utility.yul\":5797:5808   */\n  swap1\n  pop\n    /* \"#utility.yul\":5828:5831   */\n  dup2\n    /* \"#utility.yul\":5825:5826   */\n  0x00\n    /* \"#utility.yul\":5818:5832   */\n  mstore\n    /* \"#utility.yul\":5862:5866   */\n  0x20\n    /* \"#utility.yul\":5859:5860   */\n  0x00\n    /* \"#utility.yul\":5849:5867   */\n  keccak256\n    /* \"#utility.yul\":5841:5867   */\n  swap1\n  pop\n    /* \"#utility.yul\":5733:5874   */\n  swap2\n  swap1\n  pop\n  jump\t// out\n    /* \"#utility.yul\":5880:5973   */\ntag_57:\n    /* \"#utility.yul\":5917:5923   */\n  0x00\n    /* \"#utility.yul\":5964:5966   */\n  0x20\n    /* \"#utility.yul\":5959:5961   */\n  0x1f\n    /* \"#utility.yul\":5952:5957   */\n  dup4\n    /* \"#utility.yul\":5948:5962   */\n  add\n    /* \"#utility.yul\":5944:5967   */\n  div\n    /* \"#utility.yul\":5934:5967   */\n  swap1\n  pop\n    /* \"#utility.yul\":5880:5973   */\n  swap2\n  swap1\n  pop\n  jump\t// out\n    /* \"#utility.yul\":5979:6086   */\ntag_58:\n    /* \"#utility.yul\":6023:6031   */\n  0x00\n    /* \"#utility.yul\":6073:6078   */\n  dup3\n    /* \"#utility.yul\":6067:6071   */\n  dup3\n    /* \"#utility.yul\":6063:6079   */\n  shl\n    /* \"#utility.yul\":6042:6079   */\n  swap1\n  pop\n    /* \"#utility.yul\":5979:6086   */\n  swap3\n  swap2\n  pop\n  pop\n  jump\t// out\n    /* \"#utility.yul\":6092:6485   */\ntag_59:\n    /* \"#utility.yul\":6161:6167   */\n  0x00\n    /* \"#utility.yul\":6211:6212   */\n  0x08\n    /* \"#utility.yul\":6199:6209   */\n  dup4\n    /* \"#utility.yul\":6195:6213   */\n  mul\n    /* \"#utility.yul\":6234:6331   */\n  tag_140\n    /* \"#utility.yul\":6264:6330   */\n  0xffffffffffffffffffffffffffffffffffffffffffffffffffffffffffffffff\n    /* \"#utility.yul\":6253:6262   */\n  dup3\n    /* \"#utility.yul\":6234:6331   */\n  tag_58\n  jump\t// in\ntag_140:\n    /* \"#utility.yul\":6352:6391   */\n  tag_141\n    /* \"#utility.yul\":6382:6390   */\n  dup7\n    /* \"#utility.yul\":6371:6380   */\n  dup4\n    /* \"#utility.yul\":6352:6391   */\n  tag_58\n  jump\t// in\ntag_141:\n    /* \"#utility.yul\":6340:6391   */\n  swap6\n  pop\n    /* \"#utility.yul\":6424:6428   */\n  dup1\n    /* \"#utility.yul\":6420:6429   */\n  not\n    /* \"#utility.yul\":6413:6418   */\n  dup5\n    /* \"#utility.yul\":6409:6430   */\n  and\n    /* \"#utility.yul\":6400:6430   */\n  swap4\n  pop\n    /* \"#utility.yul\":6473:6477   */\n  dup1\n    /* \"#utility.yul\":6463:6471   */\n  dup7\n    /* \"#utility.yul\":6459:6478   */\n  and\n    /* \"#utility.yul\":6452:6457   */\n  dup5\n    /* \"#utility.yul\":6449:6479   */\n  or\n    /* \"#utility.yul\":6439:6479   */\n  swap3\n  pop\n    /* \"#utility.yul\":6168:6485   */\n  pop\n  pop\n    /* \"#utility.yul\":6092:6485   */\n  swap4\n  swap3\n  pop\n  pop\n  pop\n  jump\t// out\n    /* \"#utility.yul\":6491:6568   */\ntag_60:\n    /* \"#utility.yul\":6528:6535   */\n  0x00\n    /* \"#utility.yul\":6557:6562   */\n  dup2\n    /* \"#utility.yul\":6546:6562   */\n  swap1\n  pop\n    /* \"#utility.yul\":6491:6568   */\n  swap2\n  swap1\n  pop\n  jump\t// out\n    /* \"#utility.yul\":6574:6634   */\ntag_61:\n    /* \"#utility.yul\":6602:6605   */\n  0x00\n    /* \"#utility.yul\":6623:6628   */\n  dup2\n    /* \"#utility.yul\":6616:6628   */\n  swap1\n  pop\n    /* \"#utility.yul\":6574:6634   */\n  swap2\n  swap1\n  pop\n  jump\t// out\n    /* \"#utility.yul\":6640:6782   */\ntag_62:\n    /* \"#utility.yul\":6690:6699   */\n  0x00\n    /* \"#utility.yul\":6723:6776   */\n  tag_145\n    /* \"#utility.yul\":6741:6775   */\n  tag_146\n    /* \"#utility.yul\":6750:6774   */\n  tag_147\n    /* \"#utility.yul\":6768:6773   */\n  dup5\n    /* \"#utility.yul\":6750:6774   */\n  tag_60\n  jump\t// in\ntag_147:\n    /* \"#utility.yul\":6741:6775   */\n  tag_61\n  jump\t// in\ntag_146:\n    /* \"#utility.yul\":6723:6776   */\n  tag_60\n  jump\t// in\ntag_145:\n    /* \"#utility.yul\":6710:6776   */\n  swap1\n  pop\n    /* \"#utility.yul\":6640:6782   */\n  swap2\n  swap1\n  pop\n  jump\t// out\n    /* \"#utility.yul\":6788:6863   */\ntag_63:\n    /* \"#utility.yul\":6831:6834   */\n  0x00\n    /* \"#utility.yul\":6852:6857   */\n  dup2\n    /* \"#utility.yul\":6845:6857   */\n  swap1\n  pop\n    /* \"#utility.yul\":6788:6863   */\n  swap2\n  swap1\n  pop\n  jump\t// out\n    /* \"#utility.yul\":6869:7138   */\ntag_64:\n    /* \"#utility.yul\":6979:7018   */\n  tag_150\n    /* \"#utility.yul\":7010:7017   */\n  dup4\n    /* \"#utility.yul\":6979:7018   */\n  tag_62\n  jump\t// in\ntag_150:\n    /* \"#utility.yul\":7040:7131   */\n  tag_151\n    /* \"#utility.yul\":7089:7130   */\n  tag_152\n    /* \"#utility.yul\":7113:7129   */\n  dup3\n    /* \"#utility.yul\":7089:7130   */\n  tag_63\n  jump\t// in\ntag_152:\n    /* \"#utility.yul\":7081:7087   */\n  dup5\n    /* \"#utility.yul\":7074:7078   */\n  dup5\n    /* \"#utility.yul\":7068:7079   */\n  sload\n    /* \"#utility.yul\":7040:7131   */\n  tag_59\n  jump\t// in\ntag_151:\n    /* \"#utility.yul\":7034:7038   */\n  dup3\n    /* \"#utility.yul\":7027:7132   */\n  sstore\n    /* \"#utility.yul\":6945:7138   */\n  pop\n    /* \"#utility.yul\":6869:7138   */\n  pop\n  pop\n  pop\n  jump\t// out\n    /* \"#utility.yul\":7144:7217   */\ntag_65:\n    /* \"#utility.yul\":7189:7192   */\n  0x00\n    /* \"#utility.yul\":7144:7217   */\n  swap1\n  jump\t// out\n    /* \"#utility.yul\":7223:7412   */\ntag_66:\n    /* \"#utility.yul\":7300:7332   */\n  tag_155\n  tag_65\n  jump\t// in\ntag_155:\n    /* \"#utility.yul\":7341:7406   */\n  tag_156\n    /* \"#utility.yul\":7399:7405   */\n  dup2\n    /* \"#utility.yul\":7391:7397   */\n  dup5\n    /* \"#utility.yul\":7385:7389   */\n  dup5\n    /* \"#utility.yul\":7341:7406   */\n  tag_64\n  jump\t// in\ntag_156:\n    /* \"#utility.yul\":7276:7412   */\n  pop\n    /* \"#utility.yul\":7223:7412   */\n  pop\n  pop\n  jump\t// out\n    /* \"#utility.yul\":7418:7604   */\ntag_67:\n    /* \"#utility.yul\":7478:7598   */\ntag_158:\n    /* \"#utility.yul\":7495:7498   */\n  dup2\n    /* \"#utility.yul\":7488:7493   */\n  dup2\n    /* \"#utility.yul\":7485:7499   */\n  lt\n    /* \"#utility.yul\":7478:7598   */\n  iszero\n  tag_160\n  jumpi\n    /* \"#utility.yul\":7549:7588   */\n  tag_161\n    /* \"#utility.yul\":7586:7587   */\n  0x00\n    /* \"#utility.yul\":7579:7584   */\n  dup3\n    /* \"#utility.yul\":7549:7588   */\n  tag_66\n  jump\t// in\ntag_161:\n    /* \"#utility.yul\":7522:7523   */\n  0x01\n    /* \"#utility.yul\":7515:7520   */\n  dup2\n    /* \"#utility.yul\":7511:7524   */\n  add\n    /* \"#utility.yul\":7502:7524   */\n  swap1\n  pop\n    /* \"#utility.yul\":7478:7598   */\n  jump(tag_158)\ntag_160:\n    /* \"#utility.yul\":7418:7604   */\n  pop\n  pop\n  jump\t// out\n    /* \"#utility.yul\":7610:8153   */\ntag_68:\n    /* \"#utility.yul\":7711:7713   */\n  0x1f\n    /* \"#utility.yul\":7706:7709   */\n  dup3\n    /* \"#utility.yul\":7703:7714   */\n  gt\n    /* \"#utility.yul\":7700:8146   */\n  iszero\n  tag_163\n  jumpi\n    /* \"#utility.yul\":7745:7783   */\n  tag_164\n    /* \"#utility.yul\":7777:7782   */\n  dup2\n    /* \"#utility.yul\":7745:7783   */\n  tag_56\n  jump\t// in\ntag_164:\n    /* \"#utility.yul\":7829:7858   */\n  tag_165\n    /* \"#utility.yul\":7847:7857   */\n  dup5\n    /* \"#utility.yul\":7829:7858   */\n  tag_57\n  jump\t// in\ntag_165:\n    /* \"#utility.yul\":7819:7827   */\n  dup2\n    /* \"#utility.yul\":7815:7859   */\n  add\n    /* \"#utility.yul\":8012:8014   */\n  0x20\n    /* \"#utility.yul\":8000:8010   */\n  dup6\n    /* \"#utility.yul\":7997:8015   */\n  lt\n    /* \"#utility.yul\":7994:8043   */\n  iszero\n  tag_166\n  jumpi\n    /* \"#utility.yul\":8033:8041   */\n  dup2\n    /* \"#utility.yul\":8018:8041   */\n  swap1\n  pop\n    /* \"#utility.yul\":7994:8043   */\ntag_166:\n    /* \"#utility.yul\":8056:8136   */\n  tag_167\n    /* \"#utility.yul\":8112:8134   */\n  tag_168\n    /* \"#utility.yul\":8130:8133   */\n  dup6\n    /* \"#utility.yul\":8112:8134   */\n  tag_57\n  jump\t// in\ntag_168:\n    /* \"#utility.yul\":8102:8110   */\n  dup4\n    /* \"#utility.yul\":8098:8135   */\n  add\n    /* \"#utility.yul\":8085:8096   */\n  dup3\n    /* \"#utility.yul\":8056:8136   */\n  tag_67\n  jump\t// in\ntag_167:\n    /* \"#utility.yul\":7715:8146   */\n  pop\n  pop\n    /* \"#utility.yul\":7700:8146   */\ntag_163:\n    /* \"#utility.yul\":7610:8153   */\n  pop\n  pop\n  pop\n  jump\t// out\n    /* \"#utility.yul\":8159:8276   */\ntag_69:\n    /* \"#utility.yul\":8213:8221   */\n  0x00\n    /* \"#utility.yul\":8263:8268   */\n  dup3\n    /* \"#utility.yul\":8257:8261   */\n  dup3\n    /* \"#utility.yul\":8253:8269   */\n  shr\n    /* \"#utility.yul\":8232:8269   */\n  swap1\n  pop\n    /* \"#utility.yul\":8159:8276   */\n  swap3\n  swap2\n  pop\n  pop\n  jump\t// out\n    /* \"#utility.yul\":8282:8451   */\ntag_70:\n    /* \"#utility.yul\":8326:8332   */\n  0x00\n    /* \"#utility.yul\":8359:8410   */\n  tag_171\n    /* \"#utility.yul\":8407:8408   */\n  0x00\n    /* \"#utility.yul\":8403:8409   */\n  not\n    /* \"#utility.yul\":8395:8400   */\n  dup5\n    /* \"#utility.yul\":8392:8393   */\n  0x08\n    /* \"#utility.yul\":8388:8401   */\n  mul\n    /* \"#utility.yul\":8359:8410   */\n  tag_69\n  jump\t// in\ntag_171:\n    /* \"#utility.yul\":8355:8411   */\n  not\n    /* \"#utility.yul\":8440:8444   */\n  dup1\n    /* \"#utility.yul\":8434:8438   */\n  dup4\n    /* \"#utility.yul\":8430:8445   */\n  and\n    /* \"#utility.yul\":8420:8445   */\n  swap2\n  pop\n    /* \"#utility.yul\":8333:8451   */\n  pop\n    /* \"#utility.yul\":8282:8451   */\n  swap3\n  swap2\n  pop\n  pop\n  jump\t// out\n    /* \"#utility.yul\":8456:8751   */\ntag_71:\n    /* \"#utility.yul\":8532:8536   */\n  0x00\n    /* \"#utility.yul\":8678:8707   */\n  tag_173\n    /* \"#utility.yul\":8703:8706   */\n  dup4\n    /* \"#utility.yul\":8697:8701   */\n  dup4\n    /* \"#utility.yul\":8678:8707   */\n  tag_70\n  jump\t// in\ntag_173:\n    /* \"#utility.yul\":8670:8707   */\n  swap2\n  pop\n    /* \"#utility.yul\":8740:8743   */\n  dup3\n    /* \"#utility.yul\":8737:8738   */\n  0x02\n    /* \"#utility.yul\":8733:8744   */\n  mul\n    /* \"#utility.yul\":8727:8731   */\n  dup3\n    /* \"#utility.yul\":8724:8745   */\n  or\n    /* \"#utility.yul\":8716:8745   */\n  swap1\n  pop\n    /* \"#utility.yul\":8456:8751   */\n  swap3\n  swap2\n  pop\n  pop\n  jump\t// out\n    /* \"#utility.yul\":8756:10151   */\ntag_19:\n    /* \"#utility.yul\":8873:8910   */\n  tag_175\n    /* \"#utility.yul\":8906:8909   */\n  dup3\n    /* \"#utility.yul\":8873:8910   */\n  tag_54\n  jump\t// in\ntag_175:\n    /* \"#utility.yul\":8975:8993   */\n  0xffffffffffffffff\n    /* \"#utility.yul\":8967:8973   */\n  dup2\n    /* \"#utility.yul\":8964:8994   */\n  gt\n    /* \"#utility.yul\":8961:9017   */\n  iszero\n  tag_176\n  jumpi\n    /* \"#utility.yul\":8997:9015   */\n  tag_177\n  tag_10\n  jump\t// in\ntag_177:\n    /* \"#utility.yul\":8961:9017   */\ntag_176:\n    /* \"#utility.yul\":9041:9079   */\n  tag_178\n    /* \"#utility.yul\":9073:9077   */\n  dup3\n    /* \"#utility.yul\":9067:9078   */\n  sload\n    /* \"#utility.yul\":9041:9079   */\n  tag_34\n  jump\t// in\ntag_178:\n    /* \"#utility.yul\":9126:9193   */\n  tag_179\n    /* \"#utility.yul\":9186:9192   */\n  dup3\n    /* \"#utility.yul\":9178:9184   */\n  dup3\n    /* \"#utility.yul\":9172:9176   */\n  dup6\n    /* \"#utility.yul\":9126:9193   */\n  tag_68\n  jump\t// in\ntag_179:\n    /* \"#utility.yul\":9220:9221   */\n  0x00\n    /* \"#utility.yul\":9244:9248   */\n  0x20\n    /* \"#utility.yul\":9231:9248   */\n  swap1\n  pop\n    /* \"#utility.yul\":9276:9278   */\n  0x1f\n    /* \"#utility.yul\":9268:9274   */\n  dup4\n    /* \"#utility.yul\":9265:9279   */\n  gt\n    /* \"#utility.yul\":9293:9294   */\n  0x01\n    /* \"#utility.yul\":9288:9906   */\n  dup2\n  eq\n  tag_181\n  jumpi\n    /* \"#utility.yul\":9950:9951   */\n  0x00\n    /* \"#utility.yul\":9967:9973   */\n  dup5\n    /* \"#utility.yul\":9964:10041   */\n  iszero\n  tag_182\n  jumpi\n    /* \"#utility.yul\":10016:10025   */\n  dup3\n    /* \"#utility.yul\":10011:10014   */\n  dup8\n    /* \"#utility.yul\":10007:10026   */\n  add\n    /* \"#utility.yul\":10001:10027   */\n  mload\n    /* \"#utility.yul\":9992:10027   */\n  swap1\n  pop\n    /* \"#utility.yul\":9964:10041   */\ntag_182:\n    /* \"#utility.yul\":10067:10134   */\n  tag_183\n    /* \"#utility.yul\":10127:10133   */\n  dup6\n    /* \"#utility.yul\":10120:10125   */\n  dup3\n    /* \"#utility.yul\":10067:10134   */\n  tag_71\n  jump\t// in\ntag_183:\n    /* \"#utility.yul\":10061:10065   */\n  dup7\n    /* \"#utility.yul\":10054:10135   */\n  sstore\n    /* \"#utility.yul\":9923:10145   */\n  pop\n    /* \"#utility.yul\":9258:10145   */\n  jump(tag_180)\n    /* \"#utility.yul\":9288:9906   */\ntag_181:\n    /* \"#utility.yul\":9340:9344   */\n  0x1f\n    /* \"#utility.yul\":9336:9345   */\n  not\n    /* \"#utility.yul\":9328:9334   */\n  dup5\n    /* \"#utility.yul\":9324:9346   */\n  and\n    /* \"#utility.yul\":9374:9411   */\n  tag_184\n    /* \"#utility.yul\":9406:9410   */\n  dup7\n    /* \"#utility.yul\":9374:9411   */\n  tag_56\n  jump\t// in\ntag_184:\n    /* \"#utility.yul\":9433:9434   */\n  0x00\n    /* \"#utility.yul\":9447:9655   */\ntag_185:\n    /* \"#utility.yul\":9461:9468   */\n  dup3\n    /* \"#utility.yul\":9458:9459   */\n  dup2\n    /* \"#utility.yul\":9455:9469   */\n  lt\n    /* \"#utility.yul\":9447:9655   */\n  iszero\n  tag_187\n  jumpi\n    /* \"#utility.yul\":9540:9549   */\n  dup5\n    /* \"#utility.yul\":9535:9538   */\n  dup10\n    /* \"#utility.yul\":9531:9550   */\n  add\n    /* \"#utility.yul\":9525:9551   */\n  mload\n    /* \"#utility.yul\":9517:9523   */\n  dup3\n    /* \"#utility.yul\":9510:9552   */\n  sstore\n    /* \"#utility.yul\":9591:9592   */\n  0x01\n    /* \"#utility.yul\":9583:9589   */\n  dup3\n    /* \"#utility.yul\":9579:9593   */\n  add\n    /* \"#utility.yul\":9569:9593   */\n  swap2\n  pop\n    /* \"#utility.yul\":9638:9640   */\n  0x20\n    /* \"#utility.yul\":9627:9636   */\n  dup6\n    /* \"#utility.yul\":9623:9641   */\n  add\n    /* \"#utility.yul\":9610:9641   */\n  swap5\n  pop\n    /* \"#utility.yul\":9484:9488   */\n  0x20\n    /* \"#utility.yul\":9481:9482   */\n  dup2\n    /* \"#utility.yul\":9477:9489   */\n  add\n    /* \"#utility.yul\":9472:9489   */\n  swap1\n  pop\n    /* \"#utility.yul\":9447:9655   */\n  jump(tag_185)\ntag_187:\n    /* \"#utility.yul\":9683:9689   */\n  dup7\n    /* \"#utility.yul\":9674:9681   */\n  dup4\n    /* \"#utility.yul\":9671:9690   */\n  lt\n    /* \"#utility.yul\":9668:9847   */\n  iszero\n  tag_188\n  jumpi\n    /* \"#utility.yul\":9741:9750   */\n  dup5\n    /* \"#utility.yul\":9736:9739   */\n  dup10\n    /* \"#utility.yul\":9732:9751   */\n  add\n    /* \"#utility.yul\":9726:9752   */\n  mload\n    /* \"#utility.yul\":9784:9832   */\n  tag_189\n    /* \"#utility.yul\":9826:9830   */\n  0x1f\n    /* \"#utility.yul\":9818:9824   */\n  dup10\n    /* \"#utility.yul\":9814:9831   */\n  and\n    /* \"#utility.yul\":9803:9812   */\n  dup3\n    /* \"#utility.yul\":9784:9832   */\n  tag_70\n  jump\t// in\ntag_189:\n    /* \"#utility.yul\":9776:9782   */\n  dup4\n    /* \"#utility.yul\":9769:9833   */\n  sstore\n    /* \"#utility.yul\":9691:9847   */\n  pop\n    /* \"#utility.yul\":9668:9847   */\ntag_188:\n    /* \"#utility.yul\":9893:9894   */\n  0x01\n    /* \"#utility.yul\":9889:9890   */\n  0x02\n    /* \"#utility.yul\":9881:9887   */\n  dup9\n    /* \"#utility.yul\":9877:9891   */\n  mul\n    /* \"#utility.yul\":9873:9895   */\n  add\n    /* \"#utility.yul\":9867:9871   */\n  dup9\n    /* \"#utility.yul\":9860:9896   */\n  sstore\n    /* \"#utility.yul\":9295:9906   */\n  pop\n  pop\n  pop\n    /* \"#utility.yul\":9258:10145   */\ntag_180:\n  pop\n    /* \"#utility.yul\":8848:10151   */\n  pop\n  pop\n  pop\n    /* \"#utility.yul\":8756:10151   */\n  pop\n  pop\n  jump\t// out\n    /* \"Voter.sol\":27:581  contract Voter{... */\ntag_14:\n  dataSize(sub_0)\n  dup1\n  dataOffset(sub_0)\n  0x00\n  codecopy\n  0x00\n  return\nstop\n\nsub_0: assembly {\n        /* \"Voter.sol\":27:581  contract Voter{... */\n      mstore(0x40, 0x80)\n      callvalue\n      dup1\n      iszero\n      tag_1\n      jumpi\n      0x00\n      dup1\n      revert\n    tag_1:\n      pop\n      jumpi(tag_2, lt(calldatasize, 0x04))\n      shr(0xe0, calldataload(0x00))\n      dup1\n      0x0121b93f\n      eq\n      tag_3\n      jumpi\n      dup1\n      0x0dc96015\n      eq\n      tag_4\n      jumpi\n      dup1\n      0x409e2205\n      eq\n      tag_5\n      jumpi\n      dup1\n      0x5df81330\n      eq\n      tag_6\n      jumpi\n      dup1\n      0xcc2ee196\n      eq\n      tag_7\n      jumpi\n    tag_2:\n      0x00\n      dup1\n      revert\n        /* \"Voter.sol\":237:386  function vote(uint option) public {... */\n    tag_3:\n      tag_8\n      0x04\n      dup1\n      calldatasize\n      sub\n      dup2\n      add\n      swap1\n      tag_9\n      swap2\n      swap1\n      tag_10\n      jump\t// in\n    tag_9:\n      tag_11\n      jump\t// in\n    tag_8:\n      stop\n        /* \"Voter.sol\":490:576  function getVotes() public view returns (uint[] memory){... */\n    tag_4:\n      tag_12\n      tag_13\n      jump\t// in\n    tag_12:\n      mload(0x40)\n      tag_14\n      swap2\n      swap1\n      tag_15\n      jump\t// in\n    tag_14:\n      mload(0x40)\n      dup1\n      swap2\n      sub\n      swap1\n      return\n        /* \"Voter.sol\":76:99  string[] public options */\n    tag_5:\n      tag_16\n      0x04\n      dup1\n      calldatasize\n      sub\n      dup2\n      add\n      swap1\n      tag_17\n      swap2\n      swap1\n      tag_10\n      jump\t// in\n    tag_17:\n      tag_18\n      jump\t// in\n    tag_16:\n      mload(0x40)\n      tag_19\n      swap2\n      swap1\n      tag_20\n      jump\t// in\n    tag_19:\n      mload(0x40)\n      dup1\n      swap2\n      sub\n      swap1\n      return\n        /* \"Voter.sol\":50:69  uint[] public votes */\n    tag_6:\n      tag_21\n      0x04\n      dup1\n      calldatasize\n      sub\n      dup2\n      add\n      swap1\n      tag_22\n      swap2\n      swap1\n      tag_10\n      jump\t// in\n    tag_22:\n      tag_23\n      jump\t// in\n    tag_21:\n      mload(0x40)\n      tag_24\n      swap2\n      swap1\n      tag_25\n      jump\t// in\n    tag_24:\n      mload(0x40)\n      dup1\n      swap2\n      sub\n      swap1\n      return\n        /* \"Voter.sol\":394:486  function getOptions() public view returns (string[] memory){... */\n    tag_7:\n      tag_26\n      tag_27\n      jump\t// in\n    tag_26:\n      mload(0x40)\n      tag_28\n      swap2\n      swap1\n      tag_29\n      jump\t// in\n    tag_28:\n      mload(0x40)\n      dup1\n      swap2\n      sub\n      swap1\n      return\n        /* \"Voter.sol\":237:386  function vote(uint option) public {... */\n    tag_11:\n        /* \"Voter.sol\":299:306  options */\n      0x01\n        /* \"Voter.sol\":299:313  options.length */\n      dup1\n      sload\n      swap1\n      pop\n        /* \"Voter.sol\":290:296  option */\n      dup2\n        /* \"Voter.sol\":290:313  option < options.length */\n      lt\n        /* \"Voter.sol\":282:332  require(option < options.length, \"Invalid Option\") */\n      tag_31\n      jumpi\n      mload(0x40)\n      0x08c379a000000000000000000000000000000000000000000000000000000000\n      dup2\n      mstore\n      0x04\n      add\n      tag_32\n      swap1\n      tag_33\n      jump\t// in\n    tag_32:\n      mload(0x40)\n      dup1\n      swap2\n      sub\n      swap1\n      revert\n    tag_31:\n        /* \"Voter.sol\":377:378  1 */\n      0x01\n        /* \"Voter.sol\":361:366  votes */\n      0x00\n        /* \"Voter.sol\":367:373  option */\n      dup3\n        /* \"Voter.sol\":361:374  votes[option] */\n      dup2\n      sload\n      dup2\n      lt\n      tag_34\n      jumpi\n      tag_35\n      tag_36\n      jump\t// in\n    tag_35:\n    tag_34:\n      swap1\n      0x00\n      mstore\n      keccak256(0x00, 0x20)\n      add\n      sload\n        /* \"Voter.sol\":361:378  votes[option] + 1 */\n      tag_38\n      swap2\n      swap1\n      tag_39\n      jump\t// in\n    tag_38:\n        /* \"Voter.sol\":345:350  votes */\n      0x00\n        /* \"Voter.sol\":351:357  option */\n      dup3\n        /* \"Voter.sol\":345:358  votes[option] */\n      dup2\n      sload\n      dup2\n      lt\n      tag_40\n      jumpi\n      tag_41\n      tag_36\n      jump\t// in\n    tag_41:\n    tag_40:\n      swap1\n      0x00\n      mstore\n      keccak256(0x00, 0x20)\n      add\n        /* \"Voter.sol\":345:378  votes[option] = votes[option] + 1 */\n      dup2\n      swap1\n      sstore\n      pop\n        /* \"Voter.sol\":237:386  function vote(uint option) public {... */\n      pop\n      jump\t// out\n        /* \"Voter.sol\":490:576  function getVotes() public view returns (uint[] memory){... */\n    tag_13:\n        /* \"Voter.sol\":531:544  uint[] memory */\n      0x60\n        /* \"Voter.sol\":563:568  votes */\n      0x00\n        /* \"Voter.sol\":556:568  return votes */\n      dup1\n      sload\n      dup1\n      0x20\n      mul\n      0x20\n      add\n      mload(0x40)\n      swap1\n      dup2\n      add\n      0x40\n      mstore\n      dup1\n      swap3\n      swap2\n      swap1\n      dup2\n      dup2\n      mstore\n      0x20\n      add\n      dup3\n      dup1\n      sload\n      dup1\n      iszero\n      tag_44\n      jumpi\n      0x20\n      mul\n      dup3\n      add\n      swap2\n      swap1\n      0x00\n      mstore\n      keccak256(0x00, 0x20)\n      swap1\n    tag_45:\n      dup2\n      sload\n      dup2\n      mstore\n      0x20\n      add\n      swap1\n      0x01\n      add\n      swap1\n      dup1\n      dup4\n      gt\n      tag_45\n      jumpi\n    tag_44:\n      pop\n      pop\n      pop\n      pop\n      pop\n      swap1\n      pop\n        /* \"Voter.sol\":490:576  function getVotes() public view returns (uint[] memory){... */\n      swap1\n      jump\t// out\n        /* \"Voter.sol\":76:99  string[] public options */\n    tag_18:\n      0x01\n      dup2\n      dup2\n      sload\n      dup2\n      lt\n      tag_46\n      jumpi\n      0x00\n      dup1\n      revert\n    tag_46:\n      swap1\n      0x00\n      mstore\n      keccak256(0x00, 0x20)\n      add\n      0x00\n      swap2\n      pop\n      swap1\n      pop\n      dup1\n      sload\n      tag_48\n      swap1\n      tag_49\n      jump\t// in\n    tag_48:\n      dup1\n      0x1f\n      add\n      0x20\n      dup1\n      swap2\n      div\n      mul\n      0x20\n      add\n      mload(0x40)\n      swap1\n      dup2\n      add\n      0x40\n      mstore\n      dup1\n      swap3\n      swap2\n      swap1\n      dup2\n      dup2\n      mstore\n      0x20\n      add\n      dup3\n      dup1\n      sload\n      tag_50\n      swap1\n      tag_49\n      jump\t// in\n    tag_50:\n      dup1\n      iszero\n      tag_51\n      jumpi\n      dup1\n      0x1f\n      lt\n      tag_52\n      jumpi\n      0x0100\n      dup1\n      dup4\n      sload\n      div\n      mul\n      dup4\n      mstore\n      swap2\n      0x20\n      add\n      swap2\n      jump(tag_51)\n    tag_52:\n      dup3\n      add\n      swap2\n      swap1\n      0x00\n      mstore\n      keccak256(0x00, 0x20)\n      swap1\n    tag_53:\n      dup2\n      sload\n      dup2\n      mstore\n      swap1\n      0x01\n      add\n      swap1\n      0x20\n      add\n      dup1\n      dup4\n      gt\n      tag_53\n      jumpi\n      dup3\n      swap1\n      sub\n      0x1f\n      and\n      dup3\n      add\n      swap2\n    tag_51:\n      pop\n      pop\n      pop\n      pop\n      pop\n      dup2\n      jump\t// out\n        /* \"Voter.sol\":50:69  uint[] public votes */\n    tag_23:\n      0x00\n      dup2\n      dup2\n      sload\n      dup2\n      lt\n      tag_54\n      jumpi\n      0x00\n      dup1\n      revert\n    tag_54:\n      swap1\n      0x00\n      mstore\n      keccak256(0x00, 0x20)\n      add\n      0x00\n      swap2\n      pop\n      swap1\n      pop\n      sload\n      dup2\n      jump\t// out\n        /* \"Voter.sol\":394:486  function getOptions() public view returns (string[] memory){... */\n    tag_27:\n        /* \"Voter.sol\":437:452  string[] memory */\n      0x60\n        /* \"Voter.sol\":471:478  options */\n      0x01\n        /* \"Voter.sol\":464:478  return options */\n      dup1\n      sload\n      dup1\n      0x20\n      mul\n      0x20\n      add\n      mload(0x40)\n      swap1\n      dup2\n      add\n      0x40\n      mstore\n      dup1\n      swap3\n      swap2\n      swap1\n      dup2\n      dup2\n      mstore\n      0x20\n      add\n      0x00\n      swap1\n    tag_57:\n      dup3\n      dup3\n      lt\n      iszero\n      tag_58\n      jumpi\n      dup4\n      dup3\n      swap1\n      0x00\n      mstore\n      keccak256(0x00, 0x20)\n      add\n      dup1\n      sload\n      tag_60\n      swap1\n      tag_49\n      jump\t// in\n    tag_60:\n      dup1\n      0x1f\n      add\n      0x20\n      dup1\n      swap2\n      div\n      mul\n      0x20\n      add\n      mload(0x40)\n      swap1\n      dup2\n      add\n      0x40\n      mstore\n      dup1\n      swap3\n      swap2\n      swap1\n      dup2\n      dup2\n      mstore\n      0x20\n      add\n      dup3\n      dup1\n      sload\n      tag_61\n      swap1\n      tag_49\n      jump\t// in\n    tag_61:\n      dup1\n      iszero\n      tag_62\n      jumpi\n      dup1\n      0x1f\n      lt\n      tag_63\n      jumpi\n      0x0100\n      dup1\n      dup4\n      sload\n      div\n      mul\n      dup4\n      mstore\n      swap2\n      0x20\n      add\n      swap2\n      jump(tag_62)\n    tag_63:\n      dup3\n      add\n      swap2\n      swap1\n      0x00\n      mstore\n      keccak256(0x00, 0x20)\n      swap1\n    tag_64:\n      dup2\n      sload\n      dup2\n      mstore\n      swap1\n      0x01\n      add\n      swap1\n      0x20\n      add\n      dup1\n      dup4\n      gt\n      tag_64\n      jumpi\n      dup3\n      swap1\n      sub\n      0x1f\n      and\n      dup3\n      add\n      swap2\n    tag_62:\n      pop\n      pop\n      pop\n      pop\n      pop\n      dup2\n      mstore\n      0x20\n      add\n      swap1\n      0x01\n      add\n      swap1\n      jump(tag_57)\n    tag_58:\n      pop\n      pop\n      pop\n      pop\n      swap1\n      pop\n        /* \"Voter.sol\":394:486  function getOptions() public view returns (string[] memory){... */\n      swap1\n      jump\t// out\n        /* \"#utility.yul\":88:205   */\n    tag_66:\n        /* \"#utility.yul\":197:198   */\n      0x00\n        /* \"#utility.yul\":194:195   */\n      dup1\n        /* \"#utility.yul\":187:199   */\n      revert\n        /* \"#utility.yul\":334:411   */\n    tag_68:\n        /* \"#utility.yul\":371:378   */\n      0x00\n        /* \"#utility.yul\":400:405   */\n      dup2\n        /* \"#utility.yul\":389:405   */\n      swap1\n      pop\n        /* \"#utility.yul\":334:411   */\n      swap2\n      swap1\n      pop\n      jump\t// out\n        /* \"#utility.yul\":417:539   */\n    tag_69:\n        /* \"#utility.yul\":490:514   */\n      tag_102\n        /* \"#utility.yul\":508:513   */\n      dup2\n        /* \"#utility.yul\":490:514   */\n      tag_68\n      jump\t// in\n    tag_102:\n        /* \"#utility.yul\":483:488   */\n      dup2\n        /* \"#utility.yul\":480:515   */\n      eq\n        /* \"#utility.yul\":470:533   */\n      tag_103\n      jumpi\n        /* \"#utility.yul\":529:530   */\n      0x00\n        /* \"#utility.yul\":526:527   */\n      dup1\n        /* \"#utility.yul\":519:531   */\n      revert\n        /* \"#utility.yul\":470:533   */\n    tag_103:\n        /* \"#utility.yul\":417:539   */\n      pop\n      jump\t// out\n        /* \"#utility.yul\":545:684   */\n    tag_70:\n        /* \"#utility.yul\":591:596   */\n      0x00\n        /* \"#utility.yul\":629:635   */\n      dup2\n        /* \"#utility.yul\":616:636   */\n      calldataload\n        /* \"#utility.yul\":607:636   */\n      swap1\n      pop\n        /* \"#utility.yul\":645:678   */\n      tag_105\n        /* \"#utility.yul\":672:677   */\n      dup2\n        /* \"#utility.yul\":645:678   */\n      tag_69\n      jump\t// in\n    tag_105:\n        /* \"#utility.yul\":545:684   */\n      swap3\n      swap2\n      pop\n      pop\n      jump\t// out\n        /* \"#utility.yul\":690:1019   */\n    tag_10:\n        /* \"#utility.yul\":749:755   */\n      0x00\n        /* \"#utility.yul\":798:800   */\n      0x20\n        /* \"#utility.yul\":786:795   */\n      dup3\n        /* \"#utility.yul\":777:784   */\n      dup5\n        /* \"#utility.yul\":773:796   */\n      sub\n        /* \"#utility.yul\":769:801   */\n      slt\n        /* \"#utility.yul\":766:885   */\n      iszero\n      tag_107\n      jumpi\n        /* \"#utility.yul\":804:883   */\n      tag_108\n      tag_66\n      jump\t// in\n    tag_108:\n        /* \"#utility.yul\":766:885   */\n    tag_107:\n        /* \"#utility.yul\":924:925   */\n      0x00\n        /* \"#utility.yul\":949:1002   */\n      tag_109\n        /* \"#utility.yul\":994:1001   */\n      dup5\n        /* \"#utility.yul\":985:991   */\n      dup3\n        /* \"#utility.yul\":974:983   */\n      dup6\n        /* \"#utility.yul\":970:992   */\n      add\n        /* \"#utility.yul\":949:1002   */\n      tag_70\n      jump\t// in\n    tag_109:\n        /* \"#utility.yul\":939:1002   */\n      swap2\n      pop\n        /* \"#utility.yul\":895:1012   */\n      pop\n        /* \"#utility.yul\":690:1019   */\n      swap3\n      swap2\n      pop\n      pop\n      jump\t// out\n        /* \"#utility.yul\":1025:1139   */\n    tag_71:\n        /* \"#utility.yul\":1092:1098   */\n      0x00\n        /* \"#utility.yul\":1126:1131   */\n      dup2\n        /* \"#utility.yul\":1120:1132   */\n      mload\n        /* \"#utility.yul\":1110:1132   */\n      swap1\n      pop\n        /* \"#utility.yul\":1025:1139   */\n      swap2\n      swap1\n      pop\n      jump\t// out\n        /* \"#utility.yul\":1145:1329   */\n    tag_72:\n        /* \"#utility.yul\":1244:1255   */\n      0x00\n        /* \"#utility.yul\":1278:1284   */\n      dup3\n        /* \"#utility.yul\":1273:1276   */\n      dup3\n        /* \"#utility.yul\":1266:1285   */\n      mstore\n        /* \"#utility.yul\":1318:1322   */\n      0x20\n        /* \"#utility.yul\":1313:1316   */\n      dup3\n        /* \"#utility.yul\":1309:1323   */\n      add\n        /* \"#utility.yul\":1294:1323   */\n      swap1\n      pop\n        /* \"#utility.yul\":1145:1329   */\n      swap3\n      swap2\n      pop\n      pop\n      jump\t// out\n        /* \"#utility.yul\":1335:1467   */\n    tag_73:\n        /* \"#utility.yul\":1402:1406   */\n      0x00\n        /* \"#utility.yul\":1425:1428   */\n      dup2\n        /* \"#utility.yul\":1417:1428   */\n      swap1\n      pop\n        /* \"#utility.yul\":1455:1459   */\n      0x20\n        /* \"#utility.yul\":1450:1453   */\n      dup3\n        /* \"#utility.yul\":1446:1460   */\n      add\n        /* \"#utility.yul\":1438:1460   */\n      swap1\n      pop\n        /* \"#utility.yul\":1335:1467   */\n      swap2\n      swap1\n      pop\n      jump\t// out\n        /* \"#utility.yul\":1473:1581   */\n    tag_74:\n        /* \"#utility.yul\":1550:1574   */\n      tag_114\n        /* \"#utility.yul\":1568:1573   */\n      dup2\n        /* \"#utility.yul\":1550:1574   */\n      tag_68\n      jump\t// in\n    tag_114:\n        /* \"#utility.yul\":1545:1548   */\n      dup3\n        /* \"#utility.yul\":1538:1575   */\n      mstore\n        /* \"#utility.yul\":1473:1581   */\n      pop\n      pop\n      jump\t// out\n        /* \"#utility.yul\":1587:1766   */\n    tag_75:\n        /* \"#utility.yul\":1656:1666   */\n      0x00\n        /* \"#utility.yul\":1677:1723   */\n      tag_116\n        /* \"#utility.yul\":1719:1722   */\n      dup4\n        /* \"#utility.yul\":1711:1717   */\n      dup4\n        /* \"#utility.yul\":1677:1723   */\n      tag_74\n      jump\t// in\n    tag_116:\n        /* \"#utility.yul\":1755:1759   */\n      0x20\n        /* \"#utility.yul\":1750:1753   */\n      dup4\n        /* \"#utility.yul\":1746:1760   */\n      add\n        /* \"#utility.yul\":1732:1760   */\n      swap1\n      pop\n        /* \"#utility.yul\":1587:1766   */\n      swap3\n      swap2\n      pop\n      pop\n      jump\t// out\n        /* \"#utility.yul\":1772:1885   */\n    tag_76:\n        /* \"#utility.yul\":1842:1846   */\n      0x00\n        /* \"#utility.yul\":1874:1878   */\n      0x20\n        /* \"#utility.yul\":1869:1872   */\n      dup3\n        /* \"#utility.yul\":1865:1879   */\n      add\n        /* \"#utility.yul\":1857:1879   */\n      swap1\n      pop\n        /* \"#utility.yul\":1772:1885   */\n      swap2\n      swap1\n      pop\n      jump\t// out\n        /* \"#utility.yul\":1921:2653   */\n    tag_77:\n        /* \"#utility.yul\":2040:2043   */\n      0x00\n        /* \"#utility.yul\":2069:2123   */\n      tag_119\n        /* \"#utility.yul\":2117:2122   */\n      dup3\n        /* \"#utility.yul\":2069:2123   */\n      tag_71\n      jump\t// in\n    tag_119:\n        /* \"#utility.yul\":2139:2225   */\n      tag_120\n        /* \"#utility.yul\":2218:2224   */\n      dup2\n        /* \"#utility.yul\":2213:2216   */\n      dup6\n        /* \"#utility.yul\":2139:2225   */\n      tag_72\n      jump\t// in\n    tag_120:\n        /* \"#utility.yul\":2132:2225   */\n      swap4\n      pop\n        /* \"#utility.yul\":2249:2305   */\n      tag_121\n        /* \"#utility.yul\":2299:2304   */\n      dup4\n        /* \"#utility.yul\":2249:2305   */\n      tag_73\n      jump\t// in\n    tag_121:\n        /* \"#utility.yul\":2328:2335   */\n      dup1\n        /* \"#utility.yul\":2359:2360   */\n      0x00\n        /* \"#utility.yul\":2344:2628   */\n    tag_122:\n        /* \"#utility.yul\":2369:2375   */\n      dup4\n        /* \"#utility.yul\":2366:2367   */\n      dup2\n        /* \"#utility.yul\":2363:2376   */\n      lt\n        /* \"#utility.yul\":2344:2628   */\n      iszero\n      tag_124\n      jumpi\n        /* \"#utility.yul\":2445:2451   */\n      dup2\n        /* \"#utility.yul\":2439:2452   */\n      mload\n        /* \"#utility.yul\":2472:2535   */\n      tag_125\n        /* \"#utility.yul\":2531:2534   */\n      dup9\n        /* \"#utility.yul\":2516:2529   */\n      dup3\n        /* \"#utility.yul\":2472:2535   */\n      tag_75\n      jump\t// in\n    tag_125:\n        /* \"#utility.yul\":2465:2535   */\n      swap8\n      pop\n        /* \"#utility.yul\":2558:2618   */\n      tag_126\n        /* \"#utility.yul\":2611:2617   */\n      dup4\n        /* \"#utility.yul\":2558:2618   */\n      tag_76\n      jump\t// in\n    tag_126:\n        /* \"#utility.yul\":2548:2618   */\n      swap3\n      pop\n        /* \"#utility.yul\":2404:2628   */\n      pop\n        /* \"#utility.yul\":2391:2392   */\n      0x01\n        /* \"#utility.yul\":2388:2389   */\n      dup2\n        /* \"#utility.yul\":2384:2393   */\n      add\n        /* \"#utility.yul\":2379:2393   */\n      swap1\n      pop\n        /* \"#utility.yul\":2344:2628   */\n      jump(tag_122)\n    tag_124:\n        /* \"#utility.yul\":2348:2362   */\n      pop\n        /* \"#utility.yul\":2644:2647   */\n      dup6\n        /* \"#utility.yul\":2637:2647   */\n      swap4\n      pop\n        /* \"#utility.yul\":2045:2653   */\n      pop\n      pop\n      pop\n        /* \"#utility.yul\":1921:2653   */\n      swap3\n      swap2\n      pop\n      pop\n      jump\t// out\n        /* \"#utility.yul\":2659:3032   */\n    tag_15:\n        /* \"#utility.yul\":2802:2806   */\n      0x00\n        /* \"#utility.yul\":2840:2842   */\n      0x20\n        /* \"#utility.yul\":2829:2838   */\n      dup3\n        /* \"#utility.yul\":2825:2843   */\n      add\n        /* \"#utility.yul\":2817:2843   */\n      swap1\n      pop\n        /* \"#utility.yul\":2889:2898   */\n      dup2\n        /* \"#utility.yul\":2883:2887   */\n      dup2\n        /* \"#utility.yul\":2879:2899   */\n      sub\n        /* \"#utility.yul\":2875:2876   */\n      0x00\n        /* \"#utility.yul\":2864:2873   */\n      dup4\n        /* \"#utility.yul\":2860:2877   */\n      add\n        /* \"#utility.yul\":2853:2900   */\n      mstore\n        /* \"#utility.yul\":2917:3025   */\n      tag_128\n        /* \"#utility.yul\":3020:3024   */\n      dup2\n        /* \"#utility.yul\":3011:3017   */\n      dup5\n        /* \"#utility.yul\":2917:3025   */\n      tag_77\n      jump\t// in\n    tag_128:\n        /* \"#utility.yul\":2909:3025   */\n      swap1\n      pop\n        /* \"#utility.yul\":2659:3032   */\n      swap3\n      swap2\n      pop\n      pop\n      jump\t// out\n        /* \"#utility.yul\":3038:3137   */\n    tag_78:\n        /* \"#utility.yul\":3090:3096   */\n      0x00\n        /* \"#utility.yul\":3124:3129   */\n      dup2\n        /* \"#utility.yul\":3118:3130   */\n      mload\n        /* \"#utility.yul\":3108:3130   */\n      swap1\n      pop\n        /* \"#utility.yul\":3038:3137   */\n      swap2\n      swap1\n      pop\n      jump\t// out\n        /* \"#utility.yul\":3143:3312   */\n    tag_79:\n        /* \"#utility.yul\":3227:3238   */\n      0x00\n        /* \"#utility.yul\":3261:3267   */\n      dup3\n        /* \"#utility.yul\":3256:3259   */\n      dup3\n        /* \"#utility.yul\":3249:3268   */\n      mstore\n        /* \"#utility.yul\":3301:3305   */\n      0x20\n        /* \"#utility.yul\":3296:3299   */\n      dup3\n        /* \"#utility.yul\":3292:3306   */\n      add\n        /* \"#utility.yul\":3277:3306   */\n      swap1\n      pop\n        /* \"#utility.yul\":3143:3312   */\n      swap3\n      swap2\n      pop\n      pop\n      jump\t// out\n        /* \"#utility.yul\":3318:3564   */\n    tag_80:\n        /* \"#utility.yul\":3399:3400   */\n      0x00\n        /* \"#utility.yul\":3409:3522   */\n    tag_132:\n        /* \"#utility.yul\":3423:3429   */\n      dup4\n        /* \"#utility.yul\":3420:3421   */\n      dup2\n        /* \"#utility.yul\":3417:3430   */\n      lt\n        /* \"#utility.yul\":3409:3522   */\n      iszero\n      tag_134\n      jumpi\n        /* \"#utility.yul\":3508:3509   */\n      dup1\n        /* \"#utility.yul\":3503:3506   */\n      dup3\n        /* \"#utility.yul\":3499:3510   */\n      add\n        /* \"#utility.yul\":3493:3511   */\n      mload\n        /* \"#utility.yul\":3489:3490   */\n      dup2\n        /* \"#utility.yul\":3484:3487   */\n      dup5\n        /* \"#utility.yul\":3480:3491   */\n      add\n        /* \"#utility.yul\":3473:3512   */\n      mstore\n        /* \"#utility.yul\":3445:3447   */\n      0x20\n        /* \"#utility.yul\":3442:3443   */\n      dup2\n        /* \"#utility.yul\":3438:3448   */\n      add\n        /* \"#utility.yul\":3433:3448   */\n      swap1\n      pop\n        /* \"#utility.yul\":3409:3522   */\n      jump(tag_132)\n    tag_134:\n        /* \"#utility.yul\":3556:3557   */\n      0x00\n        /* \"#utility.yul\":3547:3553   */\n      dup5\n        /* \"#utility.yul\":3542:3545   */\n      dup5\n        /* \"#utility.yul\":3538:3554   */\n      add\n        /* \"#utility.yul\":3531:3558   */\n      mstore\n        /* \"#utility.yul\":3380:3564   */\n      pop\n        /* \"#utility.yul\":3318:3564   */\n      pop\n      pop\n      pop\n      jump\t// out\n        /* \"#utility.yul\":3570:3672   */\n    tag_81:\n        /* \"#utility.yul\":3611:3617   */\n      0x00\n        /* \"#utility.yul\":3662:3664   */\n      0x1f\n        /* \"#utility.yul\":3658:3665   */\n      not\n        /* \"#utility.yul\":3653:3655   */\n      0x1f\n        /* \"#utility.yul\":3646:3651   */\n      dup4\n        /* \"#utility.yul\":3642:3656   */\n      add\n        /* \"#utility.yul\":3638:3666   */\n      and\n        /* \"#utility.yul\":3628:3666   */\n      swap1\n      pop\n        /* \"#utility.yul\":3570:3672   */\n      swap2\n      swap1\n      pop\n      jump\t// out\n        /* \"#utility.yul\":3678:4055   */\n    tag_82:\n        /* \"#utility.yul\":3766:3769   */\n      0x00\n        /* \"#utility.yul\":3794:3833   */\n      tag_137\n        /* \"#utility.yul\":3827:3832   */\n      dup3\n        /* \"#utility.yul\":3794:3833   */\n      tag_78\n      jump\t// in\n    tag_137:\n        /* \"#utility.yul\":3849:3920   */\n      tag_138\n        /* \"#utility.yul\":3913:3919   */\n      dup2\n        /* \"#utility.yul\":3908:3911   */\n      dup6\n        /* \"#utility.yul\":3849:3920   */\n      tag_79\n      jump\t// in\n    tag_138:\n        /* \"#utility.yul\":3842:3920   */\n      swap4\n      pop\n        /* \"#utility.yul\":3929:3994   */\n      tag_139\n        /* \"#utility.yul\":3987:3993   */\n      dup2\n        /* \"#utility.yul\":3982:3985   */\n      dup6\n        /* \"#utility.yul\":3975:3979   */\n      0x20\n        /* \"#utility.yul\":3968:3973   */\n      dup7\n        /* \"#utility.yul\":3964:3980   */\n      add\n        /* \"#utility.yul\":3929:3994   */\n      tag_80\n      jump\t// in\n    tag_139:\n        /* \"#utility.yul\":4019:4048   */\n      tag_140\n        /* \"#utility.yul\":4041:4047   */\n      dup2\n        /* \"#utility.yul\":4019:4048   */\n      tag_81\n      jump\t// in\n    tag_140:\n        /* \"#utility.yul\":4014:4017   */\n      dup5\n        /* \"#utility.yul\":4010:4049   */\n      add\n        /* \"#utility.yul\":4003:4049   */\n      swap2\n      pop\n        /* \"#utility.yul\":3770:4055   */\n      pop\n        /* \"#utility.yul\":3678:4055   */\n      swap3\n      swap2\n      pop\n      pop\n      jump\t// out\n        /* \"#utility.yul\":4061:4374   */\n    tag_20:\n        /* \"#utility.yul\":4174:4178   */\n      0x00\n        /* \"#utility.yul\":4212:4214   */\n      0x20\n        /* \"#utility.yul\":4201:4210   */\n      dup3\n        /* \"#utility.yul\":4197:4215   */\n      add\n        /* \"#utility.yul\":4189:4215   */\n      swap1\n      pop\n        /* \"#utility.yul\":4261:4270   */\n      dup2\n        /* \"#utility.yul\":4255:4259   */\n      dup2\n        /* \"#utility.yul\":4251:4271   */\n      sub\n        /* \"#utility.yul\":4247:4248   */\n      0x00\n        /* \"#utility.yul\":4236:4245   */\n      dup4\n        /* \"#utility.yul\":4232:4249   */\n      add\n        /* \"#utility.yul\":4225:4272   */\n      mstore\n        /* \"#utility.yul\":4289:4367   */\n      tag_142\n        /* \"#utility.yul\":4362:4366   */\n      dup2\n        /* \"#utility.yul\":4353:4359   */\n      dup5\n        /* \"#utility.yul\":4289:4367   */\n      tag_82\n      jump\t// in\n    tag_142:\n        /* \"#utility.yul\":4281:4367   */\n      swap1\n      pop\n        /* \"#utility.yul\":4061:4374   */\n      swap3\n      swap2\n      pop\n      pop\n      jump\t// out\n        /* \"#utility.yul\":4380:4498   */\n    tag_83:\n        /* \"#utility.yul\":4467:4491   */\n      tag_144\n        /* \"#utility.yul\":4485:4490   */\n      dup2\n        /* \"#utility.yul\":4467:4491   */\n      tag_68\n      jump\t// in\n    tag_144:\n        /* \"#utility.yul\":4462:4465   */\n      dup3\n        /* \"#utility.yul\":4455:4492   */\n      mstore\n        /* \"#utility.yul\":4380:4498   */\n      pop\n      pop\n      jump\t// out\n        /* \"#utility.yul\":4504:4726   */\n    tag_25:\n        /* \"#utility.yul\":4597:4601   */\n      0x00\n        /* \"#utility.yul\":4635:4637   */\n      0x20\n        /* \"#utility.yul\":4624:4633   */\n      dup3\n        /* \"#utility.yul\":4620:4638   */\n      add\n        /* \"#utility.yul\":4612:4638   */\n      swap1\n      pop\n        /* \"#utility.yul\":4648:4719   */\n      tag_146\n        /* \"#utility.yul\":4716:4717   */\n      0x00\n        /* \"#utility.yul\":4705:4714   */\n      dup4\n        /* \"#utility.yul\":4701:4718   */\n      add\n        /* \"#utility.yul\":4692:4698   */\n      dup5\n        /* \"#utility.yul\":4648:4719   */\n      tag_83\n      jump\t// in\n    tag_146:\n        /* \"#utility.yul\":4504:4726   */\n      swap3\n      swap2\n      pop\n      pop\n      jump\t// out\n        /* \"#utility.yul\":4732:4856   */\n    tag_84:\n        /* \"#utility.yul\":4809:4815   */\n      0x00\n        /* \"#utility.yul\":4843:4848   */\n      dup2\n        /* \"#utility.yul\":4837:4849   */\n      mload\n        /* \"#utility.yul\":4827:4849   */\n      swap1\n      pop\n        /* \"#utility.yul\":4732:4856   */\n      swap2\n      swap1\n      pop\n      jump\t// out\n        /* \"#utility.yul\":4862:5056   */\n    tag_85:\n        /* \"#utility.yul\":4971:4982   */\n      0x00\n        /* \"#utility.yul\":5005:5011   */\n      dup3\n        /* \"#utility.yul\":5000:5003   */\n      dup3\n        /* \"#utility.yul\":4993:5012   */\n      mstore\n        /* \"#utility.yul\":5045:5049   */\n      0x20\n        /* \"#utility.yul\":5040:5043   */\n      dup3\n        /* \"#utility.yul\":5036:5050   */\n      add\n        /* \"#utility.yul\":5021:5050   */\n      swap1\n      pop\n        /* \"#utility.yul\":4862:5056   */\n      swap3\n      swap2\n      pop\n      pop\n      jump\t// out\n        /* \"#utility.yul\":5062:5204   */\n    tag_86:\n        /* \"#utility.yul\":5139:5143   */\n      0x00\n        /* \"#utility.yul\":5162:5165   */\n      dup2\n        /* \"#utility.yul\":5154:5165   */\n      swap1\n      pop\n        /* \"#utility.yul\":5192:5196   */\n      0x20\n        /* \"#utility.yul\":5187:5190   */\n      dup3\n        /* \"#utility.yul\":5183:5197   */\n      add\n        /* \"#utility.yul\":5175:5197   */\n      swap1\n      pop\n        /* \"#utility.yul\":5062:5204   */\n      swap2\n      swap1\n      pop\n      jump\t// out\n        /* \"#utility.yul\":5210:5369   */\n    tag_87:\n        /* \"#utility.yul\":5284:5295   */\n      0x00\n        /* \"#utility.yul\":5318:5324   */\n      dup3\n        /* \"#utility.yul\":5313:5316   */\n      dup3\n        /* \"#utility.yul\":5306:5325   */\n      mstore\n        /* \"#utility.yul\":5358:5362   */\n      0x20\n        /* \"#utility.yul\":5353:5356   */\n      dup3\n        /* \"#utility.yul\":5349:5363   */\n      add\n        /* \"#utility.yul\":5334:5363   */\n      swap1\n      pop\n        /* \"#utility.yul\":5210:5369   */\n      swap3\n      swap2\n      pop\n      pop\n      jump\t// out\n        /* \"#utility.yul\":5375:5732   */\n    tag_88:\n        /* \"#utility.yul\":5453:5456   */\n      0x00\n        /* \"#utility.yul\":5481:5520   */\n      tag_152\n        /* \"#utility.yul\":5514:5519   */\n      dup3\n        /* \"#utility.yul\":5481:5520   */\n      tag_78\n      jump\t// in\n    tag_152:\n        /* \"#utility.yul\":5536:5597   */\n      tag_153\n        /* \"#utility.yul\":5590:5596   */\n      dup2\n        /* \"#utility.yul\":5585:5588   */\n      dup6\n        /* \"#utility.yul\":5536:5597   */\n      tag_87\n      jump\t// in\n    tag_153:\n        /* \"#utility.yul\":5529:5597   */\n      swap4\n      pop\n        /* \"#utility.yul\":5606:5671   */\n      tag_154\n        /* \"#utility.yul\":5664:5670   */\n      dup2\n        /* \"#utility.yul\":5659:5662   */\n      dup6\n        /* \"#utility.yul\":5652:5656   */\n      0x20\n        /* \"#utility.yul\":5645:5650   */\n      dup7\n        /* \"#utility.yul\":5641:5657   */\n      add\n        /* \"#utility.yul\":5606:5671   */\n      tag_80\n      jump\t// in\n    tag_154:\n        /* \"#utility.yul\":5696:5725   */\n      tag_155\n        /* \"#utility.yul\":5718:5724   */\n      dup2\n        /* \"#utility.yul\":5696:5725   */\n      tag_81\n      jump\t// in\n    tag_155:\n        /* \"#utility.yul\":5691:5694   */\n      dup5\n        /* \"#utility.yul\":5687:5726   */\n      add\n        /* \"#utility.yul\":5680:5726   */\n      swap2\n      pop\n        /* \"#utility.yul\":5457:5732   */\n      pop\n        /* \"#utility.yul\":5375:5732   */\n      swap3\n      swap2\n      pop\n      pop\n      jump\t// out\n        /* \"#utility.yul\":5738:5934   */\n    tag_89:\n        /* \"#utility.yul\":5827:5837   */\n      0x00\n        /* \"#utility.yul\":5862:5928   */\n      tag_157\n        /* \"#utility.yul\":5924:5927   */\n      dup4\n        /* \"#utility.yul\":5916:5922   */\n      dup4\n        /* \"#utility.yul\":5862:5928   */\n      tag_88\n      jump\t// in\n    tag_157:\n        /* \"#utility.yul\":5848:5928   */\n      swap1\n      pop\n        /* \"#utility.yul\":5738:5934   */\n      swap3\n      swap2\n      pop\n      pop\n      jump\t// out\n        /* \"#utility.yul\":5940:6063   */\n    tag_90:\n        /* \"#utility.yul\":6020:6024   */\n      0x00\n        /* \"#utility.yul\":6052:6056   */\n      0x20\n        /* \"#utility.yul\":6047:6050   */\n      dup3\n        /* \"#utility.yul\":6043:6057   */\n      add\n        /* \"#utility.yul\":6035:6057   */\n      swap1\n      pop\n        /* \"#utility.yul\":5940:6063   */\n      swap2\n      swap1\n      pop\n      jump\t// out\n        /* \"#utility.yul\":6097:7088   */\n    tag_91:\n        /* \"#utility.yul\":6236:6239   */\n      0x00\n        /* \"#utility.yul\":6265:6329   */\n      tag_160\n        /* \"#utility.yul\":6323:6328   */\n      dup3\n        /* \"#utility.yul\":6265:6329   */\n      tag_84\n      jump\t// in\n    tag_160:\n        /* \"#utility.yul\":6345:6441   */\n      tag_161\n        /* \"#utility.yul\":6434:6440   */\n      dup2\n        /* \"#utility.yul\":6429:6432   */\n      dup6\n        /* \"#utility.yul\":6345:6441   */\n      tag_85\n      jump\t// in\n    tag_161:\n        /* \"#utility.yul\":6338:6441   */\n      swap4\n      pop\n        /* \"#utility.yul\":6467:6470   */\n      dup4\n        /* \"#utility.yul\":6512:6516   */\n      0x20\n        /* \"#utility.yul\":6504:6510   */\n      dup3\n        /* \"#utility.yul\":6500:6517   */\n      mul\n        /* \"#utility.yul\":6495:6498   */\n      dup6\n        /* \"#utility.yul\":6491:6518   */\n      add\n        /* \"#utility.yul\":6542:6608   */\n      tag_162\n        /* \"#utility.yul\":6602:6607   */\n      dup6\n        /* \"#utility.yul\":6542:6608   */\n      tag_86\n      jump\t// in\n    tag_162:\n        /* \"#utility.yul\":6631:6638   */\n      dup1\n        /* \"#utility.yul\":6662:6663   */\n      0x00\n        /* \"#utility.yul\":6647:7043   */\n    tag_163:\n        /* \"#utility.yul\":6672:6678   */\n      dup6\n        /* \"#utility.yul\":6669:6670   */\n      dup2\n        /* \"#utility.yul\":6666:6679   */\n      lt\n        /* \"#utility.yul\":6647:7043   */\n      iszero\n      tag_165\n      jumpi\n        /* \"#utility.yul\":6743:6752   */\n      dup5\n        /* \"#utility.yul\":6737:6741   */\n      dup5\n        /* \"#utility.yul\":6733:6753   */\n      sub\n        /* \"#utility.yul\":6728:6731   */\n      dup10\n        /* \"#utility.yul\":6721:6754   */\n      mstore\n        /* \"#utility.yul\":6794:6800   */\n      dup2\n        /* \"#utility.yul\":6788:6801   */\n      mload\n        /* \"#utility.yul\":6822:6906   */\n      tag_166\n        /* \"#utility.yul\":6901:6905   */\n      dup6\n        /* \"#utility.yul\":6886:6899   */\n      dup3\n        /* \"#utility.yul\":6822:6906   */\n      tag_89\n      jump\t// in\n    tag_166:\n        /* \"#utility.yul\":6814:6906   */\n      swap5\n      pop\n        /* \"#utility.yul\":6929:6999   */\n      tag_167\n        /* \"#utility.yul\":6992:6998   */\n      dup4\n        /* \"#utility.yul\":6929:6999   */\n      tag_90\n      jump\t// in\n    tag_167:\n        /* \"#utility.yul\":6919:6999   */\n      swap3\n      pop\n        /* \"#utility.yul\":7028:7032   */\n      0x20\n        /* \"#utility.yul\":7023:7026   */\n      dup11\n        /* \"#utility.yul\":7019:7033   */\n      add\n        /* \"#utility.yul\":7012:7033   */\n      swap10\n      pop\n        /* \"#utility.yul\":6707:7043   */\n      pop\n        /* \"#utility.yul\":6694:6695   */\n      0x01\n        /* \"#utility.yul\":6691:6692   */\n      dup2\n        /* \"#utility.yul\":6687:6696   */\n      add\n        /* \"#utility.yul\":6682:6696   */\n      swap1\n      pop\n        /* \"#utility.yul\":6647:7043   */\n      jump(tag_163)\n    tag_165:\n        /* \"#utility.yul\":6651:6665   */\n      pop\n        /* \"#utility.yul\":7059:7063   */\n      dup3\n        /* \"#utility.yul\":7052:7063   */\n      swap8\n      pop\n        /* \"#utility.yul\":7079:7082   */\n      dup8\n        /* \"#utility.yul\":7072:7082   */\n      swap6\n      pop\n        /* \"#utility.yul\":6241:7088   */\n      pop\n      pop\n      pop\n      pop\n      pop\n        /* \"#utility.yul\":6097:7088   */\n      swap3\n      swap2\n      pop\n      pop\n      jump\t// out\n        /* \"#utility.yul\":7094:7507   */\n    tag_29:\n        /* \"#utility.yul\":7257:7261   */\n      0x00\n        /* \"#utility.yul\":7295:7297   */\n      0x20\n        /* \"#utility.yul\":7284:7293   */\n      dup3\n        /* \"#utility.yul\":7280:7298   */\n      add\n        /* \"#utility.yul\":7272:7298   */\n      swap1\n      pop\n        /* \"#utility.yul\":7344:7353   */\n      dup2\n        /* \"#utility.yul\":7338:7342   */\n      dup2\n        /* \"#utility.yul\":7334:7354   */\n      sub\n        /* \"#utility.yul\":7330:7331   */\n      0x00\n        /* \"#utility.yul\":7319:7328   */\n      dup4\n        /* \"#utility.yul\":7315:7332   */\n      add\n        /* \"#utility.yul\":7308:7355   */\n      mstore\n        /* \"#utility.yul\":7372:7500   */\n      tag_169\n        /* \"#utility.yul\":7495:7499   */\n      dup2\n        /* \"#utility.yul\":7486:7492   */\n      dup5\n        /* \"#utility.yul\":7372:7500   */\n      tag_91\n      jump\t// in\n    tag_169:\n        /* \"#utility.yul\":7364:7500   */\n      swap1\n      pop\n        /* \"#utility.yul\":7094:7507   */\n      swap3\n      swap2\n      pop\n      pop\n      jump\t// out\n        /* \"#utility.yul\":7513:7677   */\n    tag_92:\n        /* \"#utility.yul\":7653:7669   */\n      0x496e76616c6964204f7074696f6e000000000000000000000000000000000000\n        /* \"#utility.yul\":7649:7650   */\n      0x00\n        /* \"#utility.yul\":7641:7647   */\n      dup3\n        /* \"#utility.yul\":7637:7651   */\n      add\n        /* \"#utility.yul\":7630:7670   */\n      mstore\n        /* \"#utility.yul\":7513:7677   */\n      pop\n      jump\t// out\n        /* \"#utility.yul\":7683:8049   */\n    tag_93:\n        /* \"#utility.yul\":7825:7828   */\n      0x00\n        /* \"#utility.yul\":7846:7913   */\n      tag_172\n        /* \"#utility.yul\":7910:7912   */\n      0x0e\n        /* \"#utility.yul\":7905:7908   */\n      dup4\n        /* \"#utility.yul\":7846:7913   */\n      tag_79\n      jump\t// in\n    tag_172:\n        /* \"#utility.yul\":7839:7913   */\n      swap2\n      pop\n        /* \"#utility.yul\":7922:8015   */\n      tag_173\n        /* \"#utility.yul\":8011:8014   */\n      dup3\n        /* \"#utility.yul\":7922:8015   */\n      tag_92\n      jump\t// in\n    tag_173:\n        /* \"#utility.yul\":8040:8042   */\n      0x20\n        /* \"#utility.yul\":8035:8038   */\n      dup3\n        /* \"#utility.yul\":8031:8043   */\n      add\n        /* \"#utility.yul\":8024:8043   */\n      swap1\n      pop\n        /* \"#utility.yul\":7683:8049   */\n      swap2\n      swap1\n      pop\n      jump\t// out\n        /* \"#utility.yul\":8055:8474   */\n    tag_33:\n        /* \"#utility.yul\":8221:8225   */\n      0x00\n        /* \"#utility.yul\":8259:8261   */\n      0x20\n        /* \"#utility.yul\":8248:8257   */\n      dup3\n        /* \"#utility.yul\":8244:8262   */\n      add\n        /* \"#utility.yul\":8236:8262   */\n      swap1\n      pop\n        /* \"#utility.yul\":8308:8317   */\n      dup2\n        /* \"#utility.yul\":8302:8306   */\n      dup2\n        /* \"#utility.yul\":8298:8318   */\n      sub\n        /* \"#utility.yul\":8294:8295   */\n      0x00\n        /* \"#utility.yul\":8283:8292   */\n      dup4\n        /* \"#utility.yul\":8279:8296   */\n      add\n        /* \"#utility.yul\":8272:8319   */\n      mstore\n        /* \"#utility.yul\":8336:8467   */\n      tag_175\n        /* \"#utility.yul\":8462:8466   */\n      dup2\n        /* \"#utility.yul\":8336:8467   */\n      tag_93\n      jump\t// in\n    tag_175:\n        /* \"#utility.yul\":8328:8467   */\n      swap1\n      pop\n        /* \"#utility.yul\":8055:8474   */\n      swap2\n      swap1\n      pop\n      jump\t// out\n        /* \"#utility.yul\":8480:8660   */\n    tag_36:\n        /* \"#utility.yul\":8528:8605   */\n      0x4e487b7100000000000000000000000000000000000000000000000000000000\n        /* \"#utility.yul\":8525:8526   */\n      0x00\n        /* \"#utility.yul\":8518:8606   */\n      mstore\n        /* \"#utility.yul\":8625:8629   */\n      0x32\n        /* \"#utility.yul\":8622:8623   */\n      0x04\n        /* \"#utility.yul\":8615:8630   */\n      mstore\n        /* \"#utility.yul\":8649:8653   */\n      0x24\n        /* \"#utility.yul\":8646:8647   */\n      0x00\n        /* \"#utility.yul\":8639:8654   */\n      revert\n        /* \"#utility.yul\":8666:8846   */\n    tag_94:\n        /* \"#utility.yul\":8714:8791   */\n      0x4e487b7100000000000000000000000000000000000000000000000000000000\n        /* \"#utility.yul\":8711:8712   */\n      0x00\n        /* \"#utility.yul\":8704:8792   */\n      mstore\n        /* \"#utility.yul\":8811:8815   */\n      0x11\n        /* \"#utility.yul\":8808:8809   */\n      0x04\n        /* \"#utility.yul\":8801:8816   */\n      mstore\n        /* \"#utility.yul\":8835:8839   */\n      0x24\n        /* \"#utility.yul\":8832:8833   */\n      0x00\n        /* \"#utility.yul\":8825:8840   */\n      revert\n        /* \"#utility.yul\":8852:9043   */\n    tag_39:\n        /* \"#utility.yul\":8892:8895   */\n      0x00\n        /* \"#utility.yul\":8911:8931   */\n      tag_179\n        /* \"#utility.yul\":8929:8930   */\n      dup3\n        /* \"#utility.yul\":8911:8931   */\n      tag_68\n      jump\t// in\n    tag_179:\n        /* \"#utility.yul\":8906:8931   */\n      swap2\n      pop\n        /* \"#utility.yul\":8945:8965   */\n      tag_180\n        /* \"#utility.yul\":8963:8964   */\n      dup4\n        /* \"#utility.yul\":8945:8965   */\n      tag_68\n      jump\t// in\n    tag_180:\n        /* \"#utility.yul\":8940:8965   */\n      swap3\n      pop\n        /* \"#utility.yul\":8988:8989   */\n      dup3\n        /* \"#utility.yul\":8985:8986   */\n      dup3\n        /* \"#utility.yul\":8981:8990   */\n      add\n        /* \"#utility.yul\":8974:8990   */\n      swap1\n      pop\n        /* \"#utility.yul\":9009:9012   */\n      dup1\n        /* \"#utility.yul\":9006:9007   */\n      dup3\n        /* \"#utility.yul\":9003:9013   */\n      gt\n        /* \"#utility.yul\":9000:9036   */\n      iszero\n      tag_181\n      jumpi\n        /* \"#utility.yul\":9016:9034   */\n      tag_182\n      tag_94\n      jump\t// in\n    tag_182:\n        /* \"#utility.yul\":9000:9036   */\n    tag_181:\n        /* \"#utility.yul\":8852:9043   */\n      swap3\n      swap2\n      pop\n      pop\n      jump\t// out\n        /* \"#utility.yul\":9049:9229   */\n    tag_95:\n        /* \"#utility.yul\":9097:9174   */\n      0x4e487b7100000000000000000000000000000000000000000000000000000000\n        /* \"#utility.yul\":9094:9095   */\n      0x00\n        /* \"#utility.yul\":9087:9175   */\n      mstore\n        /* \"#utility.yul\":9194:9198   */\n      0x22\n        /* \"#utility.yul\":9191:9192   */\n      0x04\n        /* \"#utility.yul\":9184:9199   */\n      mstore\n        /* \"#utility.yul\":9218:9222   */\n      0x24\n        /* \"#utility.yul\":9215:9216   */\n      0x00\n        /* \"#utility.yul\":9208:9223   */\n      revert\n        /* \"#utility.yul\":9235:9555   */\n    tag_49:\n        /* \"#utility.yul\":9279:9285   */\n      0x00\n        /* \"#utility.yul\":9316:9317   */\n      0x02\n        /* \"#utility.yul\":9310:9314   */\n      dup3\n        /* \"#utility.yul\":9306:9318   */\n      div\n        /* \"#utility.yul\":9296:9318   */\n      swap1\n      pop\n        /* \"#utility.yul\":9363:9364   */\n      0x01\n        /* \"#utility.yul\":9357:9361   */\n      dup3\n        /* \"#utility.yul\":9353:9365   */\n      and\n        /* \"#utility.yul\":9384:9402   */\n      dup1\n        /* \"#utility.yul\":9374:9455   */\n      tag_185\n      jumpi\n        /* \"#utility.yul\":9440:9444   */\n      0x7f\n        /* \"#utility.yul\":9432:9438   */\n      dup3\n        /* \"#utility.yul\":9428:9445   */\n      and\n        /* \"#utility.yul\":9418:9445   */\n      swap2\n      pop\n        /* \"#utility.yul\":9374:9455   */\n    tag_185:\n        /* \"#utility.yul\":9502:9504   */\n      0x20\n        /* \"#utility.yul\":9494:9500   */\n      dup3\n        /* \"#utility.yul\":9491:9505   */\n      lt\n        /* \"#utility.yul\":9471:9489   */\n      dup2\n        /* \"#utility.yul\":9468:9506   */\n      sub\n        /* \"#utility.yul\":9465:9549   */\n      tag_186\n      jumpi\n        /* \"#utility.yul\":9521:9539   */\n      tag_187\n      tag_95\n      jump\t// in\n    tag_187:\n        /* \"#utility.yul\":9465:9549   */\n    tag_186:\n        /* \"#utility.yul\":9286:9555   */\n      pop\n        /* \"#utility.yul\":9235:9555   */\n      swap2\n      swap1\n      pop\n      jump\t// out\n\n    auxdata: 0xa2646970667358221220ac1eaf0099203585391cbf262730de0530ba0ac1dae0714f401d1450e654f69e64736f6c63430008120033\n}\n",
				"bytecode": {
					"linkReferences": {},
					"object": "60806040523480156200001157600080fd5b50604051620010b0380380620010b083398181016040528101906200003791906200048b565b80600190805190602001906200004f929190620000bd565b50805167ffffffffffffffff8111156200006e576200006d62000226565b5b6040519080825280602002602001820160405280156200009d5781602001602082028036833780820191505090505b5060009080519060200190620000b59291906200011d565b50506200080e565b8280548282559060005260206000209081019282156200010a579160200282015b8281111562000109578251829081620000f8919062000727565b5091602001919060010190620000de565b5b5090506200011991906200016f565b5090565b8280548282559060005260206000209081019282156200015c579160200282015b828111156200015b5782518255916020019190600101906200013e565b5b5090506200016b919062000197565b5090565b5b80821115620001935760008181620001899190620001b6565b5060010162000170565b5090565b5b80821115620001b257600081600090555060010162000198565b5090565b508054620001c49062000516565b6000825580601f10620001d85750620001f9565b601f016020900490600052602060002090810190620001f8919062000197565b5b50565b6000604051905090565b600080fd5b600080fd5b600080fd5b6000601f19601f8301169050919050565b7f4e487b7100000000000000000000000000000000000000000000000000000000600052604160045260246000fd5b620002608262000215565b810181811067ffffffffffffffff8211171562000282576200028162000226565b5b80604052505050565b600062000297620001fc565b9050620002a5828262000255565b919050565b600067ffffffffffffffff821115620002c857620002c762000226565b5b602082029050602081019050919050565b600080fd5b600080fd5b600067ffffffffffffffff82111562000301576200030062000226565b5b6200030c8262000215565b9050602081019050919050565b60005b83811015620003395780820151818401526020810190506200031c565b60008484015250505050565b60006200035c6200035684620002e3565b6200028b565b9050828152602081018484840111156200037b576200037a620002de565b5b6200038884828562000319565b509392505050565b600082601f830112620003a857620003a762000210565b5b8151620003ba84826020860162000345565b91505092915050565b6000620003da620003d484620002aa565b6200028b565b905080838252602082019050602084028301858111156200040057620003ff620002d9565b5b835b818110156200044e57805167ffffffffffffffff81111562000429576200042862000210565b5b80860162000438898262000390565b8552602085019450505060208101905062000402565b5050509392505050565b600082601f83011262000470576200046f62000210565b5b815162000482848260208601620003c3565b91505092915050565b600060208284031215620004a457620004a362000206565b5b600082015167ffffffffffffffff811115620004c557620004c46200020b565b5b620004d38482850162000458565b91505092915050565b600081519050919050565b7f4e487b7100000000000000000000000000000000000000000000000000000000600052602260045260246000fd5b600060028204905060018216806200052f57607f821691505b602082108103620005455762000544620004e7565b5b50919050565b60008190508160005260206000209050919050565b60006020601f8301049050919050565b600082821b905092915050565b600060088302620005af7fffffffffffffffffffffffffffffffffffffffffffffffffffffffffffffffff8262000570565b620005bb868362000570565b95508019841693508086168417925050509392505050565b6000819050919050565b6000819050919050565b60006200060862000602620005fc84620005d3565b620005dd565b620005d3565b9050919050565b6000819050919050565b6200062483620005e7565b6200063c62000633826200060f565b8484546200057d565b825550505050565b600090565b6200065362000644565b6200066081848462000619565b505050565b5b8181101562000688576200067c60008262000649565b60018101905062000666565b5050565b601f821115620006d757620006a1816200054b565b620006ac8462000560565b81016020851015620006bc578190505b620006d4620006cb8562000560565b83018262000665565b50505b505050565b600082821c905092915050565b6000620006fc60001984600802620006dc565b1980831691505092915050565b6000620007178383620006e9565b9150826002028217905092915050565b6200073282620004dc565b67ffffffffffffffff8111156200074e576200074d62000226565b5b6200075a825462000516565b620007678282856200068c565b600060209050601f8311600181146200079f57600084156200078a578287015190505b62000796858262000709565b86555062000806565b601f198416620007af866200054b565b60005b82811015620007d957848901518255600182019150602085019450602081019050620007b2565b86831015620007f95784890151620007f5601f891682620006e9565b8355505b6001600288020188555050505b505050505050565b610892806200081e6000396000f3fe608060405234801561001057600080fd5b50600436106100575760003560e01c80630121b93f1461005c5780630dc9601514610078578063409e2205146100965780635df81330146100c6578063cc2ee196146100f6575b600080fd5b610076600480360381019061007191906103e7565b610114565b005b6100806101ab565b60405161008d91906104d2565b60405180910390f35b6100b060048036038101906100ab91906103e7565b610203565b6040516100bd9190610584565b60405180910390f35b6100e060048036038101906100db91906103e7565b6102af565b6040516100ed91906105b5565b60405180910390f35b6100fe6102d3565b60405161010b91906106dc565b60405180910390f35b600180549050811061015b576040517f08c379a00000000000000000000000000000000000000000000000000000000081526004016101529061074a565b60405180910390fd5b6001600082815481106101715761017061076a565b5b906000526020600020015461018691906107c8565b6000828154811061019a5761019961076a565b5b906000526020600020018190555050565b606060008054806020026020016040519081016040528092919081815260200182805480156101f957602002820191906000526020600020905b8154815260200190600101908083116101e5575b5050505050905090565b6001818154811061021357600080fd5b90600052602060002001600091509050805461022e9061082b565b80601f016020809104026020016040519081016040528092919081815260200182805461025a9061082b565b80156102a75780601f1061027c576101008083540402835291602001916102a7565b820191906000526020600020905b81548152906001019060200180831161028a57829003601f168201915b505050505081565b600081815481106102bf57600080fd5b906000526020600020016000915090505481565b60606001805480602002602001604051908101604052809291908181526020016000905b828210156103a35783829060005260206000200180546103169061082b565b80601f01602080910402602001604051908101604052809291908181526020018280546103429061082b565b801561038f5780601f106103645761010080835404028352916020019161038f565b820191906000526020600020905b81548152906001019060200180831161037257829003601f168201915b5050505050815260200190600101906102f7565b50505050905090565b600080fd5b6000819050919050565b6103c4816103b1565b81146103cf57600080fd5b50565b6000813590506103e1816103bb565b92915050565b6000602082840312156103fd576103fc6103ac565b5b600061040b848285016103d2565b91505092915050565b600081519050919050565b600082825260208201905092915050565b6000819050602082019050919050565b610449816103b1565b82525050565b600061045b8383610440565b60208301905092915050565b6000602082019050919050565b600061047f82610414565b610489818561041f565b935061049483610430565b8060005b838110156104c55781516104ac888261044f565b97506104b783610467565b925050600181019050610498565b5085935050505092915050565b600060208201905081810360008301526104ec8184610474565b905092915050565b600081519050919050565b600082825260208201905092915050565b60005b8381101561052e578082015181840152602081019050610513565b60008484015250505050565b6000601f19601f8301169050919050565b6000610556826104f4565b61056081856104ff565b9350610570818560208601610510565b6105798161053a565b840191505092915050565b6000602082019050818103600083015261059e818461054b565b905092915050565b6105af816103b1565b82525050565b60006020820190506105ca60008301846105a6565b92915050565b600081519050919050565b600082825260208201905092915050565b6000819050602082019050919050565b600082825260208201905092915050565b6000610618826104f4565b61062281856105fc565b9350610632818560208601610510565b61063b8161053a565b840191505092915050565b6000610652838361060d565b905092915050565b6000602082019050919050565b6000610672826105d0565b61067c81856105db565b93508360208202850161068e856105ec565b8060005b858110156106ca57848403895281516106ab8582610646565b94506106b68361065a565b925060208a01995050600181019050610692565b50829750879550505050505092915050565b600060208201905081810360008301526106f68184610667565b905092915050565b7f496e76616c6964204f7074696f6e000000000000000000000000000000000000600082015250565b6000610734600e836104ff565b915061073f826106fe565b602082019050919050565b6000602082019050818103600083015261076381610727565b9050919050565b7f4e487b7100000000000000000000000000000000000000000000000000000000600052603260045260246000fd5b7f4e487b7100000000000000000000000000000000000000000000000000000000600052601160045260246000fd5b60006107d3826103b1565b91506107de836103b1565b92508282019050808211156107f6576107f5610799565b5b92915050565b7f4e487b7100000000000000000000000000000000000000000000000000000000600052602260045260246000fd5b6000600282049050600182168061084357607f821691505b602082108103610856576108556107fc565b5b5091905056fea2646970667358221220ac1eaf0099203585391cbf262730de0530ba0ac1dae0714f401d1450e654f69e64736f6c63430008120033",
					"opcodes": "PUSH1 0x80 PUSH1 0x40 MSTORE CALLVALUE DUP1 ISZERO PUSH3 0x11 JUMPI PUSH1 0x0 DUP1 REVERT JUMPDEST POP PUSH1 0x40 MLOAD PUSH3 0x10B0 CODESIZE SUB DUP1 PUSH3 0x10B0 DUP4 CODECOPY DUP2 DUP2 ADD PUSH1 0x40 MSTORE DUP2 ADD SWAP1 PUSH3 0x37 SWAP2 SWAP1 PUSH3 0x48B JUMP JUMPDEST DUP1 PUSH1 0x1 SWAP1 DUP1 MLOAD SWAP1 PUSH1 0x20 ADD SWAP1 PUSH3 0x4F SWAP3 SWAP2 SWAP1 PUSH3 0xBD JUMP JUMPDEST POP DUP1 MLOAD PUSH8 0xFFFFFFFFFFFFFFFF DUP2 GT ISZERO PUSH3 0x6E JUMPI PUSH3 0x6D PUSH3 0x226 JUMP JUMPDEST JUMPDEST PUSH1 0x40 MLOAD SWAP1 DUP1 DUP3 MSTORE DUP1 PUSH1 0x20 MUL PUSH1 0x20 ADD DUP3 ADD PUSH1 0x40 MSTORE DUP1 ISZERO PUSH3 0x9D JUMPI DUP2 PUSH1 0x20 ADD PUSH1 0x20 DUP3 MUL DUP1 CALLDATASIZE DUP4 CALLDATACOPY DUP1 DUP3 ADD SWAP2 POP POP SWAP1 POP JUMPDEST POP PUSH1 0x0 SWAP1 DUP1 MLOAD SWAP1 PUSH1 0x20 ADD SWAP1 PUSH3 0xB5 SWAP3 SWAP2 SWAP1 PUSH3 0x11D JUMP JUMPDEST POP POP PUSH3 0x80E JUMP JUMPDEST DUP3 DUP1 SLOAD DUP3 DUP3 SSTORE SWAP1 PUSH1 0x0 MSTORE PUSH1 0x20 PUSH1 0x0 KECCAK256 SWAP1 DUP2 ADD SWAP3 DUP3 ISZERO PUSH3 0x10A JUMPI SWAP2 PUSH1 0x20 MUL DUP3 ADD JUMPDEST DUP3 DUP2 GT ISZERO PUSH3 0x109 JUMPI DUP3 MLOAD DUP3 SWAP1 DUP2 PUSH3 0xF8 SWAP2 SWAP1 PUSH3 0x727 JUMP JUMPDEST POP SWAP2 PUSH1 0x20 ADD SWAP2 SWAP1 PUSH1 0x1 ADD SWAP1 PUSH3 0xDE JUMP JUMPDEST JUMPDEST POP SWAP1 POP PUSH3 0x119 SWAP2 SWAP1 PUSH3 0x16F JUMP JUMPDEST POP SWAP1 JUMP JUMPDEST DUP3 DUP1 SLOAD DUP3 DUP3 SSTORE SWAP1 PUSH1 0x0 MSTORE PUSH1 0x20 PUSH1 0x0 KECCAK256 SWAP1 DUP2 ADD SWAP3 DUP3 ISZERO PUSH3 0x15C JUMPI SWAP2 PUSH1 0x20 MUL DUP3 ADD JUMPDEST DUP3 DUP2 GT ISZERO PUSH3 0x15B JUMPI DUP3 MLOAD DUP3 SSTORE SWAP2 PUSH1 0x20 ADD SWAP2 SWAP1 PUSH1 0x1 ADD SWAP1 PUSH3 0x13E JUMP JUMPDEST JUMPDEST POP SWAP1 POP PUSH3 0x16B SWAP2 SWAP1 PUSH3 0x197 JUMP JUMPDEST POP SWAP1 JUMP JUMPDEST JUMPDEST DUP1 DUP3 GT ISZERO PUSH3 0x193 JUMPI PUSH1 0x0 DUP2 DUP2 PUSH3 0x189 SWAP2 SWAP1 PUSH3 0x1B6 JUMP JUMPDEST POP PUSH1 0x1 ADD PUSH3 0x170 JUMP JUMPDEST POP SWAP1 JUMP JUMPDEST JUMPDEST DUP1 DUP3 GT ISZERO PUSH3 0x1B2 JUMPI PUSH1 0x0 DUP2 PUSH1 0x0 SWAP1 SSTORE POP PUSH1 0x1 ADD PUSH3 0x198 JUMP JUMPDEST POP SWAP1 JUMP JUMPDEST POP DUP1 SLOAD PUSH3 0x1C4 SWAP1 PUSH3 0x516 JUMP JUMPDEST PUSH1 0x0 DUP3 SSTORE DUP1 PUSH1 0x1F LT PUSH3 0x1D8 JUMPI POP PUSH3 0x1F9 JUMP JUMPDEST PUSH1 0x1F ADD PUSH1 0x20 SWAP1 DIV SWAP1 PUSH1 0x0 MSTORE PUSH1 0x20 PUSH1 0x0 KECCAK256 SWAP1 DUP2 ADD SWAP1 PUSH3 0x1F8 SWAP2 SWAP1 PUSH3 0x197 JUMP JUMPDEST JUMPDEST POP JUMP JUMPDEST PUSH1 0x0 PUSH1 0x40 MLOAD SWAP1 POP SWAP1 JUMP JUMPDEST PUSH1 0x0 DUP1 REVERT JUMPDEST PUSH1 0x0 DUP1 REVERT JUMPDEST PUSH1 0x0 DUP1 REVERT JUMPDEST PUSH1 0x0 PUSH1 0x1F NOT PUSH1 0x1F DUP4 ADD AND SWAP1 POP SWAP2 SWAP1 POP JUMP JUMPDEST PUSH32 0x4E487B7100000000000000000000000000000000000000000000000000000000 PUSH1 0x0 MSTORE PUSH1 0x41 PUSH1 0x4 MSTORE PUSH1 0x24 PUSH1 0x0 REVERT JUMPDEST PUSH3 0x260 DUP3 PUSH3 0x215 JUMP JUMPDEST DUP2 ADD DUP2 DUP2 LT PUSH8 0xFFFFFFFFFFFFFFFF DUP3 GT OR ISZERO PUSH3 0x282 JUMPI PUSH3 0x281 PUSH3 0x226 JUMP JUMPDEST JUMPDEST DUP1 PUSH1 0x40 MSTORE POP POP POP JUMP JUMPDEST PUSH1 0x0 PUSH3 0x297 PUSH3 0x1FC JUMP JUMPDEST SWAP1 POP PUSH3 0x2A5 DUP3 DUP3 PUSH3 0x255 JUMP JUMPDEST SWAP2 SWAP1 POP JUMP JUMPDEST PUSH1 0x0 PUSH8 0xFFFFFFFFFFFFFFFF DUP3 GT ISZERO PUSH3 0x2C8 JUMPI PUSH3 0x2C7 PUSH3 0x226 JUMP JUMPDEST JUMPDEST PUSH1 0x20 DUP3 MUL SWAP1 POP PUSH1 0x20 DUP2 ADD SWAP1 POP SWAP2 SWAP1 POP JUMP JUMPDEST PUSH1 0x0 DUP1 REVERT JUMPDEST PUSH1 0x0 DUP1 REVERT JUMPDEST PUSH1 0x0 PUSH8 0xFFFFFFFFFFFFFFFF DUP3 GT ISZERO PUSH3 0x301 JUMPI PUSH3 0x300 PUSH3 0x226 JUMP JUMPDEST JUMPDEST PUSH3 0x30C DUP3 PUSH3 0x215 JUMP JUMPDEST SWAP1 POP PUSH1 0x20 DUP2 ADD SWAP1 POP SWAP2 SWAP1 POP JUMP JUMPDEST PUSH1 0x0 JUMPDEST DUP4 DUP2 LT ISZERO PUSH3 0x339 JUMPI DUP1 DUP3 ADD MLOAD DUP2 DUP5 ADD MSTORE PUSH1 0x20 DUP2 ADD SWAP1 POP PUSH3 0x31C JUMP JUMPDEST PUSH1 0x0 DUP5 DUP5 ADD MSTORE POP POP POP POP JUMP JUMPDEST PUSH1 0x0 PUSH3 0x35C PUSH3 0x356 DUP5 PUSH3 0x2E3 JUMP JUMPDEST PUSH3 0x28B JUMP JUMPDEST SWAP1 POP DUP3 DUP2 MSTORE PUSH1 0x20 DUP2 ADD DUP5 DUP5 DUP5 ADD GT ISZERO PUSH3 0x37B JUMPI PUSH3 0x37A PUSH3 0x2DE JUMP JUMPDEST JUMPDEST PUSH3 0x388 DUP5 DUP3 DUP6 PUSH3 0x319 JUMP JUMPDEST POP SWAP4 SWAP3 POP POP POP JUMP JUMPDEST PUSH1 0x0 DUP3 PUSH1 0x1F DUP4 ADD SLT PUSH3 0x3A8 JUMPI PUSH3 0x3A7 PUSH3 0x210 JUMP JUMPDEST JUMPDEST DUP2 MLOAD PUSH3 0x3BA DUP5 DUP3 PUSH1 0x20 DUP7 ADD PUSH3 0x345 JUMP JUMPDEST SWAP2 POP POP SWAP3 SWAP2 POP POP JUMP JUMPDEST PUSH1 0x0 PUSH3 0x3DA PUSH3 0x3D4 DUP5 PUSH3 0x2AA JUMP JUMPDEST PUSH3 0x28B JUMP JUMPDEST SWAP1 POP DUP1 DUP4 DUP3 MSTORE PUSH1 0x20 DUP3 ADD SWAP1 POP PUSH1 0x20 DUP5 MUL DUP4 ADD DUP6 DUP2 GT ISZERO PUSH3 0x400 JUMPI PUSH3 0x3FF PUSH3 0x2D9 JUMP JUMPDEST JUMPDEST DUP4 JUMPDEST DUP2 DUP2 LT ISZERO PUSH3 0x44E JUMPI DUP1 MLOAD PUSH8 0xFFFFFFFFFFFFFFFF DUP2 GT ISZERO PUSH3 0x429 JUMPI PUSH3 0x428 PUSH3 0x210 JUMP JUMPDEST JUMPDEST DUP1 DUP7 ADD PUSH3 0x438 DUP10 DUP3 PUSH3 0x390 JUMP JUMPDEST DUP6 MSTORE PUSH1 0x20 DUP6 ADD SWAP5 POP POP POP PUSH1 0x20 DUP2 ADD SWAP1 POP PUSH3 0x402 JUMP JUMPDEST POP POP POP SWAP4 SWAP3 POP POP POP JUMP JUMPDEST PUSH1 0x0 DUP3 PUSH1 0x1F DUP4 ADD SLT PUSH3 0x470 JUMPI PUSH3 0x46F PUSH3 0x210 JUMP JUMPDEST JUMPDEST DUP2 MLOAD PUSH3 0x482 DUP5 DUP3 PUSH1 0x20 DUP7 ADD PUSH3 0x3C3 JUMP JUMPDEST SWAP2 POP POP SWAP3 SWAP2 POP POP JUMP JUMPDEST PUSH1 0x0 PUSH1 0x20 DUP3 DUP5 SUB SLT ISZERO PUSH3 0x4A4 JUMPI PUSH3 0x4A3 PUSH3 0x206 JUMP JUMPDEST JUMPDEST PUSH1 0x0 DUP3 ADD MLOAD PUSH8 0xFFFFFFFFFFFFFFFF DUP2 GT ISZERO PUSH3 0x4C5 JUMPI PUSH3 0x4C4 PUSH3 0x20B JUMP JUMPDEST JUMPDEST PUSH3 0x4D3 DUP5 DUP3 DUP6 ADD PUSH3 0x458 JUMP JUMPDEST SWAP2 POP POP SWAP3 SWAP2 POP POP JUMP JUMPDEST PUSH1 0x0 DUP2 MLOAD SWAP1 POP SWAP2 SWAP1 POP JUMP JUMPDEST PUSH32 0x4E487B7100000000000000000000000000000000000000000000000000000000 PUSH1 0x0 MSTORE PUSH1 0x22 PUSH1 0x4 MSTORE PUSH1 0x24 PUSH1 0x0 REVERT JUMPDEST PUSH1 0x0 PUSH1 0x2 DUP3 DIV SWAP1 POP PUSH1 0x1 DUP3 AND DUP1 PUSH3 0x52F JUMPI PUSH1 0x7F DUP3 AND SWAP2 POP JUMPDEST PUSH1 0x20 DUP3 LT DUP2 SUB PUSH3 0x545 JUMPI PUSH3 0x544 PUSH3 0x4E7 JUMP JUMPDEST JUMPDEST POP SWAP2 SWAP1 POP JUMP JUMPDEST PUSH1 0x0 DUP2 SWAP1 POP DUP2 PUSH1 0x0 MSTORE PUSH1 0x20 PUSH1 0x0 KECCAK256 SWAP1 POP SWAP2 SWAP1 POP JUMP JUMPDEST PUSH1 0x0 PUSH1 0x20 PUSH1 0x1F DUP4 ADD DIV SWAP1 POP SWAP2 SWAP1 POP JUMP JUMPDEST PUSH1 0x0 DUP3 DUP3 SHL SWAP1 POP SWAP3 SWAP2 POP POP JUMP JUMPDEST PUSH1 0x0 PUSH1 0x8 DUP4 MUL PUSH3 0x5AF PUSH32 0xFFFFFFFFFFFFFFFFFFFFFFFFFFFFFFFFFFFFFFFFFFFFFFFFFFFFFFFFFFFFFFFF DUP3 PUSH3 0x570 JUMP JUMPDEST PUSH3 0x5BB DUP7 DUP4 PUSH3 0x570 JUMP JUMPDEST SWAP6 POP DUP1 NOT DUP5 AND SWAP4 POP DUP1 DUP7 AND DUP5 OR SWAP3 POP POP POP SWAP4 SWAP3 POP POP POP JUMP JUMPDEST PUSH1 0x0 DUP2 SWAP1 POP SWAP2 SWAP1 POP JUMP JUMPDEST PUSH1 0x0 DUP2 SWAP1 POP SWAP2 SWAP1 POP JUMP JUMPDEST PUSH1 0x0 PUSH3 0x608 PUSH3 0x602 PUSH3 0x5FC DUP5 PUSH3 0x5D3 JUMP JUMPDEST PUSH3 0x5DD JUMP JUMPDEST PUSH3 0x5D3 JUMP JUMPDEST SWAP1 POP SWAP2 SWAP1 POP JUMP JUMPDEST PUSH1 0x0 DUP2 SWAP1 POP SWAP2 SWAP1 POP JUMP JUMPDEST PUSH3 0x624 DUP4 PUSH3 0x5E7 JUMP JUMPDEST PUSH3 0x63C PUSH3 0x633 DUP3 PUSH3 0x60F JUMP JUMPDEST DUP5 DUP5 SLOAD PUSH3 0x57D JUMP JUMPDEST DUP3 SSTORE POP POP POP POP JUMP JUMPDEST PUSH1 0x0 SWAP1 JUMP JUMPDEST PUSH3 0x653 PUSH3 0x644 JUMP JUMPDEST PUSH3 0x660 DUP2 DUP5 DUP5 PUSH3 0x619 JUMP JUMPDEST POP POP POP JUMP JUMPDEST JUMPDEST DUP2 DUP2 LT ISZERO PUSH3 0x688 JUMPI PUSH3 0x67C PUSH1 0x0 DUP3 PUSH3 0x649 JUMP JUMPDEST PUSH1 0x1 DUP2 ADD SWAP1 POP PUSH3 0x666 JUMP JUMPDEST POP POP JUMP JUMPDEST PUSH1 0x1F DUP3 GT ISZERO PUSH3 0x6D7 JUMPI PUSH3 0x6A1 DUP2 PUSH3 0x54B JUMP JUMPDEST PUSH3 0x6AC DUP5 PUSH3 0x560 JUMP JUMPDEST DUP2 ADD PUSH1 0x20 DUP6 LT ISZERO PUSH3 0x6BC JUMPI DUP2 SWAP1 POP JUMPDEST PUSH3 0x6D4 PUSH3 0x6CB DUP6 PUSH3 0x560 JUMP JUMPDEST DUP4 ADD DUP3 PUSH3 0x665 JUMP JUMPDEST POP POP JUMPDEST POP POP POP JUMP JUMPDEST PUSH1 0x0 DUP3 DUP3 SHR SWAP1 POP SWAP3 SWAP2 POP POP JUMP JUMPDEST PUSH1 0x0 PUSH3 0x6FC PUSH1 0x0 NOT DUP5 PUSH1 0x8 MUL PUSH3 0x6DC JUMP JUMPDEST NOT DUP1 DUP4 AND SWAP2 POP POP SWAP3 SWAP2 POP POP JUMP JUMPDEST PUSH1 0x0 PUSH3 0x717 DUP4 DUP4 PUSH3 0x6E9 JUMP JUMPDEST SWAP2 POP DUP3 PUSH1 0x2 MUL DUP3 OR SWAP1 POP SWAP3 SWAP2 POP POP JUMP JUMPDEST PUSH3 0x732 DUP3 PUSH3 0x4DC JUMP JUMPDEST PUSH8 0xFFFFFFFFFFFFFFFF DUP2 GT ISZERO PUSH3 0x74E JUMPI PUSH3 0x74D PUSH3 0x226 JUMP JUMPDEST JUMPDEST PUSH3 0x75A DUP3 SLOAD PUSH3 0x516 JUMP JUMPDEST PUSH3 0x767 DUP3 DUP3 DUP6 PUSH3 0x68C JUMP JUMPDEST PUSH1 0x0 PUSH1 0x20 SWAP1 POP PUSH1 0x1F DUP4 GT PUSH1 0x1 DUP2 EQ PUSH3 0x79F JUMPI PUSH1 0x0 DUP5 ISZERO PUSH3 0x78A JUMPI DUP3 DUP8 ADD MLOAD SWAP1 POP JUMPDEST PUSH3 0x796 DUP6 DUP3 PUSH3 0x709 JUMP JUMPDEST DUP7 SSTORE POP PUSH3 0x806 JUMP JUMPDEST PUSH1 0x1F NOT DUP5 AND PUSH3 0x7AF DUP7 PUSH3 0x54B JUMP JUMPDEST PUSH1 0x0 JUMPDEST DUP3 DUP2 LT ISZERO PUSH3 0x7D9 JUMPI DUP5 DUP10 ADD MLOAD DUP3 SSTORE PUSH1 0x1 DUP3 ADD SWAP2 POP PUSH1 0x20 DUP6 ADD SWAP5 POP PUSH1 0x20 DUP2 ADD SWAP1 POP PUSH3 0x7B2 JUMP JUMPDEST DUP7 DUP4 LT ISZERO PUSH3 0x7F9 JUMPI DUP5 DUP10 ADD MLOAD PUSH3 0x7F5 PUSH1 0x1F DUP10 AND DUP3 PUSH3 0x6E9 JUMP JUMPDEST DUP4 SSTORE POP JUMPDEST PUSH1 0x1 PUSH1 0x2 DUP9 MUL ADD DUP9 SSTORE POP POP POP JUMPDEST POP POP POP POP POP POP JUMP JUMPDEST PUSH2 0x892 DUP1 PUSH3 0x81E PUSH1 0x0 CODECOPY PUSH1 0x0 RETURN INVALID PUSH1 0x80 PUSH1 0x40 MSTORE CALLVALUE DUP1 ISZERO PUSH2 0x10 JUMPI PUSH1 0x0 DUP1 REVERT JUMPDEST POP PUSH1 0x4 CALLDATASIZE LT PUSH2 0x57 JUMPI PUSH1 0x0 CALLDATALOAD PUSH1 0xE0 SHR DUP1 PUSH4 0x121B93F EQ PUSH2 0x5C JUMPI DUP1 PUSH4 0xDC96015 EQ PUSH2 0x78 JUMPI DUP1 PUSH4 0x409E2205 EQ PUSH2 0x96 JUMPI DUP1 PUSH4 0x5DF81330 EQ PUSH2 0xC6 JUMPI DUP1 PUSH4 0xCC2EE196 EQ PUSH2 0xF6 JUMPI JUMPDEST PUSH1 0x0 DUP1 REVERT JUMPDEST PUSH2 0x76 PUSH1 0x4 DUP1 CALLDATASIZE SUB DUP2 ADD SWAP1 PUSH2 0x71 SWAP2 SWAP1 PUSH2 0x3E7 JUMP JUMPDEST PUSH2 0x114 JUMP JUMPDEST STOP JUMPDEST PUSH2 0x80 PUSH2 0x1AB JUMP JUMPDEST PUSH1 0x40 MLOAD PUSH2 0x8D SWAP2 SWAP1 PUSH2 0x4D2 JUMP JUMPDEST PUSH1 0x40 MLOAD DUP1 SWAP2 SUB SWAP1 RETURN JUMPDEST PUSH2 0xB0 PUSH1 0x4 DUP1 CALLDATASIZE SUB DUP2 ADD SWAP1 PUSH2 0xAB SWAP2 SWAP1 PUSH2 0x3E7 JUMP JUMPDEST PUSH2 0x203 JUMP JUMPDEST PUSH1 0x40 MLOAD PUSH2 0xBD SWAP2 SWAP1 PUSH2 0x584 JUMP JUMPDEST PUSH1 0x40 MLOAD DUP1 SWAP2 SUB SWAP1 RETURN JUMPDEST PUSH2 0xE0 PUSH1 0x4 DUP1 CALLDATASIZE SUB DUP2 ADD SWAP1 PUSH2 0xDB SWAP2 SWAP1 PUSH2 0x3E7 JUMP JUMPDEST PUSH2 0x2AF JUMP JUMPDEST PUSH1 0x40 MLOAD PUSH2 0xED SWAP2 SWAP1 PUSH2 0x5B5 JUMP JUMPDEST PUSH1 0x40 MLOAD DUP1 SWAP2 SUB SWAP1 RETURN JUMPDEST PUSH2 0xFE PUSH2 0x2D3 JUMP JUMPDEST PUSH1 0x40 MLOAD PUSH2 0x10B SWAP2 SWAP1 PUSH2 0x6DC JUMP JUMPDEST PUSH1 0x40 MLOAD DUP1 SWAP2 SUB SWAP1 RETURN JUMPDEST PUSH1 0x1 DUP1 SLOAD SWAP1 POP DUP2 LT PUSH2 0x15B JUMPI PUSH1 0x40 MLOAD PUSH32 0x8C379A000000000000000000000000000000000000000000000000000000000 DUP2 MSTORE PUSH1 0x4 ADD PUSH2 0x152 SWAP1 PUSH2 0x74A JUMP JUMPDEST PUSH1 0x40 MLOAD DUP1 SWAP2 SUB SWAP1 REVERT JUMPDEST PUSH1 0x1 PUSH1 0x0 DUP3 DUP2 SLOAD DUP2 LT PUSH2 0x171 JUMPI PUSH2 0x170 PUSH2 0x76A JUMP JUMPDEST JUMPDEST SWAP1 PUSH1 0x0 MSTORE PUSH1 0x20 PUSH1 0x0 KECCAK256 ADD SLOAD PUSH2 0x186 SWAP2 SWAP1 PUSH2 0x7C8 JUMP JUMPDEST PUSH1 0x0 DUP3 DUP2 SLOAD DUP2 LT PUSH2 0x19A JUMPI PUSH2 0x199 PUSH2 0x76A JUMP JUMPDEST JUMPDEST SWAP1 PUSH1 0x0 MSTORE PUSH1 0x20 PUSH1 0x0 KECCAK256 ADD DUP2 SWAP1 SSTORE POP POP JUMP JUMPDEST PUSH1 0x60 PUSH1 0x0 DUP1 SLOAD DUP1 PUSH1 0x20 MUL PUSH1 0x20 ADD PUSH1 0x40 MLOAD SWAP1 DUP2 ADD PUSH1 0x40 MSTORE DUP1 SWAP3 SWAP2 SWAP1 DUP2 DUP2 MSTORE PUSH1 0x20 ADD DUP3 DUP1 SLOAD DUP1 ISZERO PUSH2 0x1F9 JUMPI PUSH1 0x20 MUL DUP3 ADD SWAP2 SWAP1 PUSH1 0x0 MSTORE PUSH1 0x20 PUSH1 0x0 KECCAK256 SWAP1 JUMPDEST DUP2 SLOAD DUP2 MSTORE PUSH1 0x20 ADD SWAP1 PUSH1 0x1 ADD SWAP1 DUP1 DUP4 GT PUSH2 0x1E5 JUMPI JUMPDEST POP POP POP POP POP SWAP1 POP SWAP1 JUMP JUMPDEST PUSH1 0x1 DUP2 DUP2 SLOAD DUP2 LT PUSH2 0x213 JUMPI PUSH1 0x0 DUP1 REVERT JUMPDEST SWAP1 PUSH1 0x0 MSTORE PUSH1 0x20 PUSH1 0x0 KECCAK256 ADD PUSH1 0x0 SWAP2 POP SWAP1 POP DUP1 SLOAD PUSH2 0x22E SWAP1 PUSH2 0x82B JUMP JUMPDEST DUP1 PUSH1 0x1F ADD PUSH1 0x20 DUP1 SWAP2 DIV MUL PUSH1 0x20 ADD PUSH1 0x40 MLOAD SWAP1 DUP2 ADD PUSH1 0x40 MSTORE DUP1 SWAP3 SWAP2 SWAP1 DUP2 DUP2 MSTORE PUSH1 0x20 ADD DUP3 DUP1 SLOAD PUSH2 0x25A SWAP1 PUSH2 0x82B JUMP JUMPDEST DUP1 ISZERO PUSH2 0x2A7 JUMPI DUP1 PUSH1 0x1F LT PUSH2 0x27C JUMPI PUSH2 0x100 DUP1 DUP4 SLOAD DIV MUL DUP4 MSTORE SWAP2 PUSH1 0x20 ADD SWAP2 PUSH2 0x2A7 JUMP JUMPDEST DUP3 ADD SWAP2 SWAP1 PUSH1 0x0 MSTORE PUSH1 0x20 PUSH1 0x0 KECCAK256 SWAP1 JUMPDEST DUP2 SLOAD DUP2 MSTORE SWAP1 PUSH1 0x1 ADD SWAP1 PUSH1 0x20 ADD DUP1 DUP4 GT PUSH2 0x28A JUMPI DUP3 SWAP1 SUB PUSH1 0x1F AND DUP3 ADD SWAP2 JUMPDEST POP POP POP POP POP DUP2 JUMP JUMPDEST PUSH1 0x0 DUP2 DUP2 SLOAD DUP2 LT PUSH2 0x2BF JUMPI PUSH1 0x0 DUP1 REVERT JUMPDEST SWAP1 PUSH1 0x0 MSTORE PUSH1 0x20 PUSH1 0x0 KECCAK256 ADD PUSH1 0x0 SWAP2 POP SWAP1 POP SLOAD DUP2 JUMP JUMPDEST PUSH1 0x60 PUSH1 0x1 DUP1 SLOAD DUP1 PUSH1 0x20 MUL PUSH1 0x20 ADD PUSH1 0x40 MLOAD SWAP1 DUP2 ADD PUSH1 0x40 MSTORE DUP1 SWAP3 SWAP2 SWAP1 DUP2 DUP2 MSTORE PUSH1 0x20 ADD PUSH1 0x0 SWAP1 JUMPDEST DUP3 DUP3 LT ISZERO PUSH2 0x3A3 JUMPI DUP4 DUP3 SWAP1 PUSH1 0x0 MSTORE PUSH1 0x20 PUSH1 0x0 KECCAK256 ADD DUP1 SLOAD PUSH2 0x316 SWAP1 PUSH2 0x82B JUMP JUMPDEST DUP1 PUSH1 0x1F ADD PUSH1 0x20 DUP1 SWAP2 DIV MUL PUSH1 0x20 ADD PUSH1 0x40 MLOAD SWAP1 DUP2 ADD PUSH1 0x40 MSTORE DUP1 SWAP3 SWAP2 SWAP1 DUP2 DUP2 MSTORE PUSH1 0x20 ADD DUP3 DUP1 SLOAD PUSH2 0x342 SWAP1 PUSH2 0x82B JUMP JUMPDEST DUP1 ISZERO PUSH2 0x38F JUMPI DUP1 PUSH1 0x1F LT PUSH2 0x364 JUMPI PUSH2 0x100 DUP1 DUP4 SLOAD DIV MUL DUP4 MSTORE SWAP2 PUSH1 0x20 ADD SWAP2 PUSH2 0x38F JUMP JUMPDEST DUP3 ADD SWAP2 SWAP1 PUSH1 0x0 MSTORE PUSH1 0x20 PUSH1 0x0 KECCAK256 SWAP1 JUMPDEST DUP2 SLOAD DUP2 MSTORE SWAP1 PUSH1 0x1 ADD SWAP1 PUSH1 0x20 ADD DUP1 DUP4 GT PUSH2 0x372 JUMPI DUP3 SWAP1 SUB PUSH1 0x1F AND DUP3 ADD SWAP2 JUMPDEST POP POP POP POP POP DUP2 MSTORE PUSH1 0x20 ADD SWAP1 PUSH1 0x1 ADD SWAP1 PUSH2 0x2F7 JUMP JUMPDEST POP POP POP POP SWAP1 POP SWAP1 JUMP JUMPDEST PUSH1 0x0 DUP1 REVERT JUMPDEST PUSH1 0x0 DUP2 SWAP1 POP SWAP2 SWAP1 POP JUMP JUMPDEST PUSH2 0x3C4 DUP2 PUSH2 0x3B1 JUMP JUMPDEST DUP2 EQ PUSH2 0x3CF JUMPI PUSH1 0x0 DUP1 REVERT JUMPDEST POP JUMP JUMPDEST PUSH1 0x0 DUP2 CALLDATALOAD SWAP1 POP PUSH2 0x3E1 DUP2 PUSH2 0x3BB JUMP JUMPDEST SWAP3 SWAP2 POP POP JUMP JUMPDEST PUSH1 0x0 PUSH1 0x20 DUP3 DUP5 SUB SLT ISZERO PUSH2 0x3FD JUMPI PUSH2 0x3FC PUSH2 0x3AC JUMP JUMPDEST JUMPDEST PUSH1 0x0 PUSH2 0x40B DUP5 DUP3 DUP6 ADD PUSH2 0x3D2 JUMP JUMPDEST SWAP2 POP POP SWAP3 SWAP2 POP POP JUMP JUMPDEST PUSH1 0x0 DUP2 MLOAD SWAP1 POP SWAP2 SWAP1 POP JUMP JUMPDEST PUSH1 0x0 DUP3 DUP3 MSTORE PUSH1 0x20 DUP3 ADD SWAP1 POP SWAP3 SWAP2 POP POP JUMP JUMPDEST PUSH1 0x0 DUP2 SWAP1 POP PUSH1 0x20 DUP3 ADD SWAP1 POP SWAP2 SWAP1 POP JUMP JUMPDEST PUSH2 0x449 DUP2 PUSH2 0x3B1 JUMP JUMPDEST DUP3 MSTORE POP POP JUMP JUMPDEST PUSH1 0x0 PUSH2 0x45B DUP4 DUP4 PUSH2 0x440 JUMP JUMPDEST PUSH1 0x20 DUP4 ADD SWAP1 POP SWAP3 SWAP2 POP POP JUMP JUMPDEST PUSH1 0x0 PUSH1 0x20 DUP3 ADD SWAP1 POP SWAP2 SWAP1 POP JUMP JUMPDEST PUSH1 0x0 PUSH2 0x47F DUP3 PUSH2 0x414 JUMP JUMPDEST PUSH2 0x489 DUP2 DUP6 PUSH2 0x41F JUMP JUMPDEST SWAP4 POP PUSH2 0x494 DUP4 PUSH2 0x430 JUMP JUMPDEST DUP1 PUSH1 0x0 JUMPDEST DUP4 DUP2 LT ISZERO PUSH2 0x4C5 JUMPI DUP2 MLOAD PUSH2 0x4AC DUP9 DUP3 PUSH2 0x44F JUMP JUMPDEST SWAP8 POP PUSH2 0x4B7 DUP4 PUSH2 0x467 JUMP JUMPDEST SWAP3 POP POP PUSH1 0x1 DUP2 ADD SWAP1 POP PUSH2 0x498 JUMP JUMPDEST POP DUP6 SWAP4 POP POP POP POP SWAP3 SWAP2 POP POP JUMP JUMPDEST PUSH1 0x0 PUSH1 0x20 DUP3 ADD SWAP1 POP DUP2 DUP2 SUB PUSH1 0x0 DUP4 ADD MSTORE PUSH2 0x4EC DUP2 DUP5 PUSH2 0x474 JUMP JUMPDEST SWAP1 POP SWAP3 SWAP2 POP POP JUMP JUMPDEST PUSH1 0x0 DUP2 MLOAD SWAP1 POP SWAP2 SWAP1 POP JUMP JUMPDEST PUSH1 0x0 DUP3 DUP3 MSTORE PUSH1 0x20 DUP3 ADD SWAP1 POP SWAP3 SWAP2 POP POP JUMP JUMPDEST PUSH1 0x0 JUMPDEST DUP4 DUP2 LT ISZERO PUSH2 0x52E JUMPI DUP1 DUP3 ADD MLOAD DUP2 DUP5 ADD MSTORE PUSH1 0x20 DUP2 ADD SWAP1 POP PUSH2 0x513 JUMP JUMPDEST PUSH1 0x0 DUP5 DUP5 ADD MSTORE POP POP POP POP JUMP JUMPDEST PUSH1 0x0 PUSH1 0x1F NOT PUSH1 0x1F DUP4 ADD AND SWAP1 POP SWAP2 SWAP1 POP JUMP JUMPDEST PUSH1 0x0 PUSH2 0x556 DUP3 PUSH2 0x4F4 JUMP JUMPDEST PUSH2 0x560 DUP2 DUP6 PUSH2 0x4FF JUMP JUMPDEST SWAP4 POP PUSH2 0x570 DUP2 DUP6 PUSH1 0x20 DUP7 ADD PUSH2 0x510 JUMP JUMPDEST PUSH2 0x579 DUP2 PUSH2 0x53A JUMP JUMPDEST DUP5 ADD SWAP2 POP POP SWAP3 SWAP2 POP POP JUMP JUMPDEST PUSH1 0x0 PUSH1 0x20 DUP3 ADD SWAP1 POP DUP2 DUP2 SUB PUSH1 0x0 DUP4 ADD MSTORE PUSH2 0x59E DUP2 DUP5 PUSH2 0x54B JUMP JUMPDEST SWAP1 POP SWAP3 SWAP2 POP POP JUMP JUMPDEST PUSH2 0x5AF DUP2 PUSH2 0x3B1 JUMP JUMPDEST DUP3 MSTORE POP POP JUMP JUMPDEST PUSH1 0x0 PUSH1 0x20 DUP3 ADD SWAP1 POP PUSH2 0x5CA PUSH1 0x0 DUP4 ADD DUP5 PUSH2 0x5A6 JUMP JUMPDEST SWAP3 SWAP2 POP POP JUMP JUMPDEST PUSH1 0x0 DUP2 MLOAD SWAP1 POP SWAP2 SWAP1 POP JUMP JUMPDEST PUSH1 0x0 DUP3 DUP3 MSTORE PUSH1 0x20 DUP3 ADD SWAP1 POP SWAP3 SWAP2 POP POP JUMP JUMPDEST PUSH1 0x0 DUP2 SWAP1 POP PUSH1 0x20 DUP3 ADD SWAP1 POP SWAP2 SWAP1 POP JUMP JUMPDEST PUSH1 0x0 DUP3 DUP3 MSTORE PUSH1 0x20 DUP3 ADD SWAP1 POP SWAP3 SWAP2 POP POP JUMP JUMPDEST PUSH1 0x0 PUSH2 0x618 DUP3 PUSH2 0x4F4 JUMP JUMPDEST PUSH2 0x622 DUP2 DUP6 PUSH2 0x5FC JUMP JUMPDEST SWAP4 POP PUSH2 0x632 DUP2 DUP6 PUSH1 0x20 DUP7 ADD PUSH2 0x510 JUMP JUMPDEST PUSH2 0x63B DUP2 PUSH2 0x53A JUMP JUMPDEST DUP5 ADD SWAP2 POP POP SWAP3 SWAP2 POP POP JUMP JUMPDEST PUSH1 0x0 PUSH2 0x652 DUP4 DUP4 PUSH2 0x60D JUMP JUMPDEST SWAP1 POP SWAP3 SWAP2 POP POP JUMP JUMPDEST PUSH1 0x0 PUSH1 0x20 DUP3 ADD SWAP1 POP SWAP2 SWAP1 POP JUMP JUMPDEST PUSH1 0x0 PUSH2 0x672 DUP3 PUSH2 0x5D0 JUMP JUMPDEST PUSH2 0x67C DUP2 DUP6 PUSH2 0x5DB JUMP JUMPDEST SWAP4 POP DUP4 PUSH1 0x20 DUP3 MUL DUP6 ADD PUSH2 0x68E DUP6 PUSH2 0x5EC JUMP JUMPDEST DUP1 PUSH1 0x0 JUMPDEST DUP6 DUP2 LT ISZERO PUSH2 0x6CA JUMPI DUP5 DUP5 SUB DUP10 MSTORE DUP2 MLOAD PUSH2 0x6AB DUP6 DUP3 PUSH2 0x646 JUMP JUMPDEST SWAP5 POP PUSH2 0x6B6 DUP4 PUSH2 0x65A JUMP JUMPDEST SWAP3 POP PUSH1 0x20 DUP11 ADD SWAP10 POP POP PUSH1 0x1 DUP2 ADD SWAP1 POP PUSH2 0x692 JUMP JUMPDEST POP DUP3 SWAP8 POP DUP8 SWAP6 POP POP POP POP POP POP SWAP3 SWAP2 POP POP JUMP JUMPDEST PUSH1 0x0 PUSH1 0x20 DUP3 ADD SWAP1 POP DUP2 DUP2 SUB PUSH1 0x0 DUP4 ADD MSTORE PUSH2 0x6F6 DUP2 DUP5 PUSH2 0x667 JUMP JUMPDEST SWAP1 POP SWAP3 SWAP2 POP POP JUMP JUMPDEST PUSH32 0x496E76616C6964204F7074696F6E000000000000000000000000000000000000 PUSH1 0x0 DUP3 ADD MSTORE POP JUMP JUMPDEST PUSH1 0x0 PUSH2 0x734 PUSH1 0xE DUP4 PUSH2 0x4FF JUMP JUMPDEST SWAP2 POP PUSH2 0x73F DUP3 PUSH2 0x6FE JUMP JUMPDEST PUSH1 0x20 DUP3 ADD SWAP1 POP SWAP2 SWAP1 POP JUMP JUMPDEST PUSH1 0x0 PUSH1 0x20 DUP3 ADD SWAP1 POP DUP2 DUP2 SUB PUSH1 0x0 DUP4 ADD MSTORE PUSH2 0x763 DUP2 PUSH2 0x727 JUMP JUMPDEST SWAP1 POP SWAP2 SWAP1 POP JUMP JUMPDEST PUSH32 0x4E487B7100000000000000000000000000000000000000000000000000000000 PUSH1 0x0 MSTORE PUSH1 0x32 PUSH1 0x4 MSTORE PUSH1 0x24 PUSH1 0x0 REVERT JUMPDEST PUSH32 0x4E487B7100000000000000000000000000000000000000000000000000000000 PUSH1 0x0 MSTORE PUSH1 0x11 PUSH1 0x4 MSTORE PUSH1 0x24 PUSH1 0x0 REVERT JUMPDEST PUSH1 0x0 PUSH2 0x7D3 DUP3 PUSH2 0x3B1 JUMP JUMPDEST SWAP2 POP PUSH2 0x7DE DUP4 PUSH2 0x3B1 JUMP JUMPDEST SWAP3 POP DUP3 DUP3 ADD SWAP1 POP DUP1 DUP3 GT ISZERO PUSH2 0x7F6 JUMPI PUSH2 0x7F5 PUSH2 0x799 JUMP JUMPDEST JUMPDEST SWAP3 SWAP2 POP POP JUMP JUMPDEST PUSH32 0x4E487B7100000000000000000000000000000000000000000000000000000000 PUSH1 0x0 MSTORE PUSH1 0x22 PUSH1 0x4 MSTORE PUSH1 0x24 PUSH1 0x0 REVERT JUMPDEST PUSH1 0x0 PUSH1 0x2 DUP3 DIV SWAP1 POP PUSH1 0x1 DUP3 AND DUP1 PUSH2 0x843 JUMPI PUSH1 0x7F DUP3 AND SWAP2 POP JUMPDEST PUSH1 0x20 DUP3 LT DUP2 SUB PUSH2 0x856 JUMPI PUSH2 0x855 PUSH2 0x7FC JUMP JUMPDEST JUMPDEST POP SWAP2 SWAP1 POP JUMP INVALID LOG2 PUSH5 0x6970667358 0x22 SLT KECCAK256 0xAC 0x1E 0xAF STOP SWAP10 KECCAK256 CALLDATALOAD DUP6 CODECOPY SHR 0xBF 0x26 0x27 ADDRESS 0xDE SDIV ADDRESS 0xBA EXP 0xC1 0xDA 0xE0 PUSH18 0x4F401D1450E654F69E64736F6C6343000812 STOP CALLER "
				},
				"gasEstimates": {
					"creation": {
						"codeDepositCost": "438800",
						"executionCost": "infinite",
						"totalCost": "infinite"
					},
					"external": {
						"getOptions()": "infinite",
						"getVotes()": "infinite",
						"options(uint256)": "infinite",
						"vote(uint256)": "infinite",
						"votes(uint256)": "infinite"
					}
				},
				"methodIdentifiers": {
					"getOptions()": "cc2ee196",
					"getVotes()": "0dc96015",
					"options(uint256)": "409e2205",
					"vote(uint256)": "0121b93f",
					"votes(uint256)": "5df81330"
				}
			},
			"storageLayout": {
				"storage": [
					{
						"astId": 4,
						"contract": "Voter.sol:Voter",
						"label": "votes",
						"offset": 0,
						"slot": "0",
						"type": "t_array(t_uint256)dyn_storage"
					},
					{
						"astId": 7,
						"contract": "Voter.sol:Voter",
						"label": "options",
						"offset": 0,
						"slot": "1",
						"type": "t_array(t_string_storage)dyn_storage"
					}
				],
				"types": {
					"t_array(t_string_storage)dyn_storage": {
						"base": "t_string_storage",
						"encoding": "dynamic_array",
						"label": "string[]",
						"numberOfBytes": "32"
					},
					"t_array(t_uint256)dyn_storage": {
						"base": "t_uint256",
						"encoding": "dynamic_array",
						"label": "uint256[]",
						"numberOfBytes": "32"
					},
					"t_string_storage": {
						"encoding": "bytes",
						"label": "string",
						"numberOfBytes": "32"
					},
					"t_uint256": {
						"encoding": "inplace",
						"label": "uint256",
						"numberOfBytes": "32"
					}
				}
			},
			"userdoc": {
				"kind": "user",
				"methods": {},
				"version": 1
			}
		}
	}
}